:100000000C94530A0C94740A0C94740A0C94740A99
:100010000C94740A0C94740A0C94740A0C94740A68
:100020000C94740A0C94740A0C94740A0C94740A58
:100030000C94740A0C94740A0C94740A0C94740A48
:100040000C94740A0C94740A0C94740A0C94740A38
:100050000C94740A0C94174D0C94740A0C94740A42
:100060000C94740A0C94EE4C0C949C4C0C94740AF2
:100070000C94740A0C94740A0C94740A0C94740A08
:100080000C94740A0C94740A0C94740A0C94740AF8
:100090000C94C54C0C94734C0C94740A0C94740A14
:1000A0000C94740A0C94740A0C94740A0C94740AD8
:1000B0000C94740A0C94740A0C94740A0C94740AC8
:1000C0000C94740A0C94740A0C94740A0C94740AB8
:1000D0000C94740A0C94740A0C94740A0C94740AA8
:1000E0000C94740A0C94AA4A0C94ED160C94C74410
:1000F0000C94DC160C94FC3D0C94680B0C94D716F5
:100100000C94A9280C945F440C9477420C942E40D4
:100110000C941B3E0C942E330C943E400C94E4142F
:100120000C9458370C941C0B0C9461390C94CE41F0
:100130000C9466160C941F420C94C4160C94B24294
:100140000C94A8160C9471430C9485400C9489422D
:100150000C945C4A0C9404170C940B170C94F41632
:100160000C94272F0C94DC420C94CE430C94CD16A7
:100170000C946D470C94E1160C94C8160C944A2DFF
:100180000C943B460C94FC320C94FB400C941E1DCA
:100190000C949A160C946E150C944C4A0C94D24AFA
:1001A0000C94FB160C94483E0C94A40C0C947F0CFD
:1001B0000C94753E0C9430160C9453450C949E167A
:1001C0000C94DF3C0C94D2160C94742C6364696E0E
:1001D0006F70737578585B000A0020776974682027
:1001E0002564206572726F7273006C6F6164656460
:1001F00020256420627974657320746F74616C20AB
:1002000066726F6D20253034782D25303478006C7F
:100210006F6164696E672066726F6D2025730A00D6
:100220006C6F6164696E672066726F6D20636F6EBC
:10023000736F6C653B20656E74657220626C616ED5
:100240006B206C696E6520746F2063616E63656CF2
:100250000A006572726F722077726974696E672026
:1002600066696C65006572726F7220777269746975
:100270006E672066696C650075736167653A207307
:10028000617665686578203C73746172743E203CC9
:10029000656E643E205B66696C655D0A006572721E
:1002A0006F72207365656B696E672066696C653A6D
:1002B0002025530A00746D736C62696E00666C6170
:1002C00073680075736167653A202573203C737409
:1002D00061727420616464723E203C66696C656E74
:1002E000616D653E205B6F66667365745D205B6C57
:1002F000656E6774685D0A0075736167653A20739F
:1003000061766562696E203C73746172743E203C54
:10031000656E643E205B66696C655D0A00776169A5
:1003200074696E6720666F72207472616E736665A1
:100330007220746F20626567696E3B20707265730E
:1003400073205E5820747769636520746F20636141
:100350006E63656C0A0075736167653A20257320CA
:100360003C66696C653E0A00626567696E6E696E1F
:1003700067207472616E736D697373696F6E3B2071
:100380007072657373205E5820747769636520749A
:100390006F2063616E63656C0A0075736167653A0F
:1003A0002064697361736D203C73746172743E20C4
:1003B0005B656E645D0A000A002E00256300200064
:1003C00020002530325820002530356C5820200080
:1003D0000A002558002000200041444452202020DB
:1003E0000075736167653A202573205B73746172D1
:1003F000745D205B656E645D0A0048414C54205278
:100400004551554553542061742024253034780AD1
:10041000004B6579626F6172642048414C542061E1
:10042000742024253034780A0063757272656E7406
:100430002073706565642069732025752E2530331F
:1004400075204D487A2028636C6B6469763D25647D
:10045000290A0075736167653A20636C6B6469767D
:10046000203C646976696465723E3B206D696E6903
:100470006D756D20646976696465722069732032D8
:100480000A0063757272656E742073637265656EBF
:100490002073697A652069732025647825640A00D1
:1004A00075736167653A2073637265656E203C778A
:1004B000696474683E203C6865696768743E0A0038
:1004C0006F6666006572726F723A20756E6B6E6F42
:1004D000776E20747970650A006F6666000925736F
:1004E000206F666620746F2064697361626C65209A
:1004F000616C6C0A00092573203C747970653E209C
:100500006F666620746F2064697361626C65207425
:100510007970650A000A75736167653A0A0925737F
:10052000203C747970653E205B73746172745D2049
:100530005B656E645D0A0009255309253034782D0A
:10054000253034780A000925530964697361626CA7
:1005500065640A006D656D7264006D656D7772008B
:100560006F7066657463680062757300646D610026
:100570002573207374617475733A0A006272656141
:100580006B006F6666006F6E006572726F7220633B
:1005900068616E67696E67206469726563746F7203
:1005A000793A2025530A0075736167653A206364C0
:1005B000203C6469726563746F72793E0A006572EB
:1005C000726F72206D616B696E672064697265631A
:1005D000746F72792025733A2025530A0075736170
:1005E00067653A206D6B646972203C6469723E0AEB
:1005F0000066696C65206E6F7420666F756E640AA4
:10060000002575206974656D2873290A00252D3130
:100610003373000A006572726F72207265616469DB
:100620006E67206469726563746F72793A2025532E
:100630000A006572726F72206F70656E696E672056
:100640006469726563746F72793A2025530A007584
:10065000736167653A202573203C7372633E2E2ECA
:100660002E203C646573743E0A0075736167653AB9
:10067000202573203C7372633E2E2E2E203C646531
:1006800073743E0A0075736167653A202573203CD8
:1006900066696C653E2E2E2E0A00646573630061E8
:1006A00073630075736167653A2066696C6C203C02
:1006B00073746172743E203C656E643E203C7661CA
:1006C0006C75653E0A002530356C583D2530325832
:1006D000203A2000656E7465722076616C69642032
:1006E00068657820746F207265706C6163653B206B
:1006F000626C616E6B20746F206C6561766520752D
:100700006E6368616E6765643B2027782720746F8D
:1007100020657869742E0A0075736167653A2070E8
:100720006F6B65203C73746172743E205B76616C04
:1007300075652E2E2E5D0A0075617274310075612B
:1007400072743000726561640075736167653A2088
:10075000617474616368205B307C315D205B72651D
:1007600061647C77726974655D205B756172743059
:100770007C75617274317C66696C656E616D655DF6
:100780000A00554152542025753A207265717565ED
:10079000737465643A20256C752C206163747561EF
:1007A0006C3A20256C750A0075736167653A2062A2
:1007B000617564203C756172743E203C62617564B1
:1007C0003E0A000A00282563290A00285E256329BD
:1007D0000A0068616C74206B65792069732025308C
:1007E0003278200068616C74206B65792069732011
:1007F00064697361626C65640A006F6666001B5B06
:10080000306D1B5B3B481B5B324A002563007573F0
:100810006167653A202573203C68657820636F64C2
:10082000653E2E2E2E0A0025733E257300617574D9
:100830006F657865632E7736350075736167653A45
:1008400020646F203C66696C656E616D653E0A00D0
:1008500025530925530A000061747461636820768A
:1008600069727475616C207561727400636F6E6675
:100870006967757265205541525420626175642024
:100880007261746500646973706C6179206C6F7754
:100890002D6C6576656C2062757320737461747558
:1008A000730073657420627265616B706F696E743A
:1008B0007300006368616E676520646972656374C4
:1008C0006F727900007365742057363530322063BB
:1008D0006C6F636B206469766964657200636C6534
:1008E00061722073637265656E00636F7079206159
:1008F0002066696C652028616C69617320637029CA
:100900000000646562756720636F64652061742010
:10091000616464726573732028616C69617320631C
:100920002900657261736520612066696C65202805
:10093000616C696173206572612C20726D2900738E
:10094000686F7773206469726563746F7279206C65
:10095000697374696E6720696E206C6F6E672066BC
:100960006F726D617400646973617373656D626C3D
:100970006573206D656D6F7279206C6F636174694A
:100980006F6E00656E61626C6520646D61206465E8
:1009900062756700657865637574652061206261C2
:1009A0007463682066696C650064756D70206D65A0
:1009B0006D6F727920696E2068657820616E6420A1
:1009C00061736369692028616C696173206429001F
:1009D000000066696C6C206D656D6F7279207769B7
:1009E0007468206279746500656E61626C65206868
:1009F000616C7420766961206B6579626F617264E5
:100A00002073686F7274637574006C69737420610D
:100A10007661696C61626C6520636F6D6D616E6497
:100A200073006C6F61642062696E6172792066691F
:100A30006C6520746F206D656D6F7279006C6F61ED
:100A40006420696E74656C206865782066696C65E1
:100A500020746F206D656D6F72790073686F7773A6
:100A6000206469726563746F7279206C697374694C
:100A70006E6720696E207769646520666F726D61AC
:100A8000740000637265617465206120737562642F
:100A900069726563746F72792028616C6961732073
:100AA0006D6429000000706F6B652076616C756560
:100AB0007320696E746F206D656D6F7279000072BE
:100AC000656E616D652F6D6F766520612066696C5E
:100AD00065206F72206469726563746F7279202873
:100AE000616C696173206D7629000000657865632B
:100AF00075746520636F646520617420616464723D
:100B00006573730000736176652062696E61727946
:100B10002066696C652066726F6D206D656D6F7201
:100B200079007361766520696E74656C20686578FC
:100B30002066696C652066726F6D206D656D6F72E1
:100B400079007365742073637265656E2073697ACA
:100B5000650000737465702070726F636573736FE6
:100B600072204E206379636C65732028616C696123
:100B70007320732900736574207761746368207033
:100B80006F696E74730072656365697665206120B4
:100B900066696C652076696120786D6F64656D00AB
:100BA00073656E6420612066696C652076696120DA
:100BB000786D6F64656D00617661696C61626C650A
:100BC00020636F6D6D616E64733A0A003E40C744E6
:100BD0008540E4143B468942742C742C1F426E15E8
:100BE000483E483E8942FC3D753E7143AA4A4C4A04
:100BF000D24AD24AFC3D53455F445C4A6D47583760
:100C0000753E2E332E331B3E1B3EFB40FC3D1B3EF0
:100C1000FC3DFC3DDC42B2422E40CE43CE41774209
:100C200077423B46DF3C61396173636969006174F7
:100C3000746163680062617564006275730062725A
:100C400065616B00630063640063686469720063DC
:100C50006C6B64697600636C7300636F707900631A
:100C6000700064656275670064656C006469720099
:100C700064697361736D00646D615F64656275675B
:100C800000646F0064756D700064006572610066D9
:100C9000696C6C0068616C746B65790068656C7078
:100CA000006C6F616462696E006C6F616468657886
:100CB000006C73006D64006D6B646972006D6F761B
:100CC00065006D7600706F6B650072640072656E12
:100CD00000726D00726D6469720072756E007265EB
:100CE000736574007361766562696E007361766521
:100CF0006865780073637265656E00730073746570
:100D00007000776174636800786D727800786D7434
:100D10007800363530326374726C3A25733E000ABF
:100D20000A20363530326372746C0A0A0A7479709C
:100D3000652068656C7020746F206C697374206125
:100D40007661696C61626C6520636F6D6D616E6464
:100D5000730A006572726F72206D6F756E74696EC2
:100D6000672064726976653A2025530A00657272BD
:100D70006F72206F70656E696E6720272573273A42
:100D80002025530A006572726F7220636C6F73695D
:100D90006E672066696C653A2025530A0065727299
:100DA0006F722072656164696E672066696C653A6E
:100DB0002025530A006572726F7220777269746918
:100DC0006E672066696C653A2025530A0065727269
:100DD0006F722064656C6574696E672027257327C0
:100DE0003A2025530A006572726F722072656E6137
:100DF0006D696E67202725732720746F2027257360
:100E0000273A2025530A006572726F7220636F7053
:100E100079696E67202725732720746F2027257333
:100E2000273A2025530A006572726F7220656E752D
:100E30006D65726174696E672066696C65733A20CE
:100E400025530A004F4B006469736B206572726F03
:100E50007200696E7465726E616C206572726F7279
:100E6000006472697665206E6F74207265616479C2
:100E70000066696C65206E6F7420666F756E640025
:100E800070617468206E6F7420666F756E6400699F
:100E90006E76616C69642070617468206E616D6546
:100EA000006163636573732064656E6965640066E1
:100EB000696C6520616C726561647920657869731D
:100EC000747300696E76616C6964206F626A656331
:100ED000740077726974652070726F7465637465ED
:100EE0006400696E76616C6964206472697665205D
:100EF0006E756D626572006472697665206E6F74DE
:100F0000206D6F756E74656400696E76616C6964DE
:100F10002066696C6573797374656D006D6B6673BB
:100F20002061626F727465640074696D656F7574B9
:100F30000066696C65206C6F636B6564006F757427
:100F4000206F66206D656D6F727900746F6F206D14
:100F5000616E79206F70656E2066696C65730069DB
:100F60006E76616C696420706172616D6574657222
:100F700000002F002F0048414C54207265717565A8
:100F800073742074696D6564206F75740A006275EE
:100F9000732072656C656173652074696D6564208A
:100FA0006F75740A00092530347820253032782096
:100FB0002563202020202573202573202020202534
:100FC0007320257320257320257320257320257316
:100FD0002025732025730A00256420256F00657283
:100FE000726F723A202553206F6E206C696E6520F7
:100FF00025640A006F6B00696E76616C696420720B
:1010000065636F726420666F726D617400696E73E0
:10101000756666696369656E7420627974657300CC
:10102000636865636B73756D206D69736D6174635F
:101030006800756E737570706F7274656420726588
:10104000636F726420747970650025730A002573DC
:101050000A00646D6164617420253032780A006D85
:10106000626164727320253034780A00646D6163B4
:101070006D6420253032780A00646D616E6F202522
:101080003032780A00646D6172715F61646472204D
:10109000253034780A00646D617020253034780A78
:1010A00000444D412066696E69736865640A0048B2
:1010B000414C5420524551554553542061742024CD
:1010C000253034780A0025303478205741492824C7
:1010D00043422920726571756573740A00627265F6
:1010E000616B206174202425303478203A6D656D61
:1010F00077650A00627265616B2061742024253077
:101100003478203A6D656D72640A00627265616BB5
:10111000206174202425303478203A6F70636F6426
:10112000652066657463680A0020282425303258DB
:10113000253032582C5829002028242530325825B3
:101140003032582900202425303258253032582C8E
:101150005900202425303258253032582C58002090
:1011600024253032582530325800202824253032AA
:10117000582C592900202824253032582C58290071
:101180002028242530325829002024253032582C9C
:1011900059002024253032582C5800202425303284
:1011A000580020232425303258002024253034785C
:1011B000004100414443414E4441534C424252425B
:1011C0004253424343424353424551424954424DA4
:1011D00049424E4542504C42524142524B42564384
:1011E000425653434C43434C44434C49434C56436F
:1011F0004D50435058435059444543444558444545
:1012000059454F52494E43494E58494E594A4D50FF
:101210004A53524C44414C44584C44594C53524EFE
:101220004F504F52415048415048505048585048F4
:1012300059504C41504C50504C58504C59524D42C2
:10124000524F4C524F5252544952545353424353AB
:101250004543534544534549534D425354415354D8
:101260005053545853545953545A54415854415953
:10127000545242545342545358545841545853545E
:1012800059415741492D2D2D000D25464640250237
:101290002E27250246402502030B2525463F250221
:1012A0002E10251B463F2502031F01464608012F2D
:1012B0002E2B012F4608012F030901014608012F9B
:1012C0002E3401174608012F03311A4646461A23C9
:1012D0002E261A23461E1A23030E1A1A46461A23CE
:1012E0002E121A2946461A2303320046463C003085
:1012F0002E2A0030461E0030030F0000463C00300E
:101300002E36002D461E0030030C3846463B383A38
:1013100037190842463B383A04053838463B383AD4
:1013200037443843463C383C0422202146222021C1
:10133000373E203D4622202104062020462220213F
:10134000371320414622202104161446461614174E
:10135000371D141845161417040A1414464614179A
:101360003711142839461417041533464615331B14
:10137000371C33244615331B040733334646331BCF
:101380003735332C4646331B04000A000007070795
:1013900004000601000E0E0E05030B0C00070808E2
:1013A00004001001000E0F0F050E0A0000070707CA
:1013B00004000601000E0E0E05030B0C00080808C1
:1013C00004001001000F0F0F05000A0000070707B7
:1013D00004000601000E0E0E05030B0C00070808A2
:1013E00004001000000E0F0F05000A000007070799
:1013F0000400060100110E0E05030B0C000808087E
:101400000400100000120F0F05030A000007070771
:1014100004000600000E0E0E05030B0C0008080960
:1014200004001000000E0F0F05060A06000707074C
:1014300004000600000E0E0E05030B0C0008080940
:1014400004001000000F0F1005060A000007070730
:1014500004000600000E0E0E05030B0C0007080822
:1014600004001000000E0F0F05060A000007070712
:1014700004000600000E0E0E05030B0C0007080802
:1014800004001000000E0F0F052025730A00200035
:101490002E002563002020200025303278200025F2
:1014A00030356C78200011241FBECFEFD1E2DEBFB3
:1014B000CDBF00E00CBF14E0A0E0B2E0E8E6FEEA39
:1014C00000E00BBF02C007900D92A436B107D9F718
:1014D00028E0A4E6B4E001C01D92A23BB207E1F708
:1014E0000E943C4D0C9420570C940000CF93DF9346
:1014F000282F30E096E4899FF0011124E25CF84F38
:1015000044815581220F331F41110AC02A533C4F99
:10151000D901ED91FC9188E98083DF91CF91089505
:101520004150842F90E09583848382819381992711
:10153000D901A653BC4F0D90BC91A02DEF01C80F4F
:10154000D91F5E815C9301968F7399279383828361
:101550004111E3CFDBCF90E0FC01EE0FFF1FE6531C
:10156000FC4F0190F081E02D408126E4289FF0019E
:10157000299FF00D1124E653F84F24813581622F05
:1015800050913E02552329F0541303C051E050936B
:101590003D076034C8F42F5F30E056E4589FF001F7
:1015A000599FF00D1124E653F84F35832483808131
:1015B00091819927DF01A80FB91F16964C930196C8
:1015C0008F739927918380830895CF93DF93282F7A
:1015D000217030E086E4829FD001839FB00D1124FA
:1015E000A25CB84FFD0134968081918180349105D1
:1015F000D8F78D919C9111979927ED01C80FD91FAC
:101600006E83F894408151814F5F5F4F51834083D7
:10161000220F331FF901EA53FC4F0190F081E02DB6
:1016200028EB2083789401968F73992711969C93C9
:101630008E93DF91CF910895CF93C82F8A3019F4FC
:101640008DE00E941C0B6C2F80E00E94E50A90E068
:1016500080E0CF9108958091420790914307892BB4
:10166000D1F78091880790918907892BA1F7809104
:10167000C00085FFFCCF8091C80085FFFCCF089596
:10168000282F217030E086E4829FF001839FF00DC7
:101690001124E653F84F84819581892BB9F022817A
:1016A00033813327DF01A20FB31F16968C91F89474
:1016B00044815581415051095583448378942F5F6B
:1016C0003F4F2F73332733832283089580E008959B
:1016D000CF92DF92EF92FF920F931F93CF93DF93FE
:1016E000182F092F8091A6089091A708892BD1F473
:1016F000C6E5D8E06E018091CE079091CF07892B87
:10170000D1F380E00E94400B8D3039F58AE0888368
:10171000612F702F0E941C0B86E598E09093A7081C
:101720008093A608E091A608F091A708CF01019642
:101730009093A7088093A60880818A3021F41092A4
:10174000A7081092A60890E0DF91CF911F910F910A
:10175000FF90EF90DF90CF9008958A30B9F28930F2
:1017600079F090EE980F9F3510F0803A88F098E06D
:10177000C53AD90739F467E080E00E94E50ABBCF9B
:1017800080E2F5CF8993612F702F0E941C0BB3CF9D
:10179000853109F473C050F4883069F08231D9F191
:1017A000833009F0A8CF8FEF9FEFCECF8731B9F00C
:1017B0008F3709F0A0CFE8E0C635DE0709F008F45E
:1017C0009ACF68E080E00E94E50A60E280E00E9433
:1017D000E50A68E080E00E94E50A21978CCF7E014F
:1017E000E701E6E5EE16E8E0FE0609F008F483CF2F
:1017F000F70182917F01803209F47DCF68E080E0BB
:101800000E94E50A60E280E00E94E50A68E080E06C
:101810000E94E50AE5CF6DE080E00E94E50A86E5DA
:10182000E82E88E0F82EEC16FD0608F064CF612F54
:10183000702FF70181917F010E941C0BF4CF68E0AB
:1018400080E00E94E50A60E280E00E94E50A68E02C
:1018500080E00E94E50AF1E0EF1AF10886E5E8165B
:1018600088E0F80609F058F798E0C635D90740F047
:10187000C6018C1B9D0BC80FD91F3DCF7E01EECF3B
:1018800090E080E0F8CFCF93DF93282F217030E0F5
:10189000C901880F991FFC01EA53FC4FC081D18117
:1018A000188246E4429FF001439FF00D1124DF01AE
:1018B000A653B84F15961C921E92149713961C921D
:1018C0001E92129711961C921E92E25CF84F15829E
:1018D00014821382128211821082FC01EE53FC4F9B
:1018E0000190F081E02D708382549C4FDC01ED91DA
:1018F000FC91608388E98883DF91CF9108959A01F4
:1019000010920A01909102019F7B90930201A19A8B
:10191000A298982F8F5F92B9909102019064909352
:10192000020100000000F9019091090190832F5FEE
:101930003F4F909102019F7B90930201681710F036
:101940008111E7CFA29A08959A019FEF90930A011F
:10195000909102019F7B90930201A198A29890918F
:101960000201906490930201982F8F5F92B9F90160
:1019700090812F5F3F4F90930B01909102019F7BCD
:1019800090930201681710F08111E9CFA29A10928A
:101990000A0108950F931F938A019B0140E050E0D4
:1019A000BA01401751076207730719F41F910F918D
:1019B00008950196FC013197E491E111FACF4F5F50
:1019C0005F4F6F4F7F4FEDCF8EBD0DB407FEFDCF44
:1019D0008EB50895FC019E5F20812EBD0DB407FEDB
:1019E000FDCF21812EBD0DB407FEFDCF3296E81745
:1019F000F90791F78FEF0E94E40C8FEF0E94E40C3F
:101A00008FEF0E94E40C8F7121E030E0853011F0FF
:101A100030E020E0C90108950F931F93CF93DF9327
:101A20008C01EB0184E18093A2068FEF0E94E40C0D
:101A30008F3F39F48091A2068111F7CF90E080E0CA
:101A40001CC08E3FD9F7F8018FEF8EBD0DB407FE95
:101A5000FDCF9EB590838EBD0DB407FEFDCF9EB524
:101A6000918322973296209781F78FEF0E94E40CA2
:101A70008FEF0E94E40C81E090E0DF91CF911F9105
:101A80000F910895289A8FEF0C94E40C6AE070E0AF
:101A90000E94BD4D6093A1068FEF0E94E40C982F29
:101AA0008F3F21F08091A1068111F6CF21E030E037
:101AB0009F3F11F030E020E0C9010895CF93DF93FC
:101AC00028988FEF0E94E40C84EF91E00E94460D6D
:101AD000EC01892B31F40E94420DCE01DF91CF91B0
:101AE0000895C1E0D0E0F9CFFF920F931F93CF93F9
:101AF000DF93C82FD42F152F062FF72E87FF09C08D
:101B000040E050E0BA0187E30E94740D823048F54E
:101B1000CF77CC3061F58C2F80640E94E40C8F2D40
:101B20000E94E40C802F0E94E40C812F0E94E40CA0
:101B30008D2F0E94E40C85E9CC2321F087E8C83082
:101B400009F081E00E94E40CCC3019F48FEF0E9480
:101B5000E40CCAE08FEF0E94E40C87FF02C0C15082
:101B6000C9F7DF91CF911F910F91FF9008950E94C7
:101B7000420D0E945E0D892B71F68FEFF2CF0F930D
:101B80001F93CF93DF9300D0CDB7DEB78C012A83AC
:101B90003B838091A30683FD07C089E0440F551F56
:101BA000661F771F8A95D1F72A813B812230310544
:101BB00090F531E1398389810E94740D811119C03A
:101BC00060E072E0C8010E940C0D892B49F01E5F95
:101BD0002A813B81215031093B832A83232B81F7C2
:101BE0003981323131F440E050E0BA018CE00E949A
:101BF000740D0E94420D81E090E02A813B81232BED
:101C000011F490E080E00F900F900F90DF91CF9152
:101C10001F910F91089582E18983CDCFFF920F9399
:101C20001F93CF93DF93CDB7DEB760970FB6F894CD
:101C3000DEBF0FBECDBF8B019091110290FD26C17A
:101C4000853050F4813089F1833009F49FC08823B6
:101C5000B1F004E010E01CC0823309F411C18333F9
:101C6000C1F740E050E0BA0189E00E94740D811193
:101C700024C060E170E0C8010E940C0D02C00E9407
:101C80005E0D01E010E0892B09F000E00E94420D9A
:101C9000C80160960FB6F894DEBF0FBECDBFDF91CE
:101CA000CF911F910F91FF90089540E050E0BA014D
:101CB00089E00E94740D882311F001E037C060E1D3
:101CC00070E0CE0101960E940C0D892BB1F3998131
:101CD000929596959695937089856A8548859130F9
:101CE00039F5282F30E0322F2227260F311D842F7F
:101CF00090E0B0E0A0E0DC019927882788279927A9
:101D0000AF73BB270196A11DB11D820F931FA11DAB
:101D1000B11D2AE0880F991FAA1FBB1F2A95D1F772
:101D2000F80180839183A283B38300E010E0AECFFB
:101D30008295869586958370F4E04F9FA0011124CB
:101D4000840F952F911D01964F8150E0542F442709
:101D5000550F550F44275C70840F951FB0E0A0E02D
:101D60003E813F702B85221F2227221F320F3E5FAC
:101D7000262F220F2670230F2950330B04C0880F03
:101D8000991FAA1FBB1F2A95D2F7CACFF090A306AE
:101D900040E050E0BA01F2FE21C08DE80E94740DCF
:101DA00081118BCF8FEF0E94E40C60E170E0CE01D7
:101DB00001960E940C0D892B09F47FCF60E3F62E6B
:101DC0008FEF0E94E40CFA94F110FACF2B85229544
:101DD0002F7080E190E0A0E0B0E0D0CF89E00E94D9
:101DE000740D81116ACF60E170E0CE0101960E940E
:101DF0000C0D892B09F461CF8B8590E02C85F1FEC9
:101E00001BC0880F991F8E779927221F2227221F18
:101E100030E02F5F3F4F820F931F2E85229526952E
:101E2000269523702150330B02C0880F991F2A95E5
:101E3000E2F7B0E0A0E074CFF8E02F9FA0011124FA
:101E400048715527229526952770240F352F311D6F
:101E50002F5F3F4F95958795959587958F7199271A
:101E60000196289FA001299F500D389F500D1124E5
:101E700070E060E0F801408351836283738355CF43
:101E80008091A306FB01808300E0E4CE03E0E2CE74
:101E9000CF92DF92EF92FF920F931F93CF93DF9336
:101EA00000D00F92CDB7DEB784B1876084B9239894
:101EB00081E08DBD80E58CBD8CB58C7F8CBD8CB5F3
:101EC0008B7F8CBD8BE987BD82E084BD95E095BD9D
:101ED00080936E0078948AE08093A2068091A20697
:101EE0008111FCCF8091110281FF0FC080911102FE
:101EF0000F900F900F900F90DF91CF911F910F9146
:101F0000FF90EF90DF90CF9008958CB583608CBDEB
:101F10001AE08FEF0E94E40C1150D9F740E050E036
:101F2000BA0180E00E94740D082F813009F071C061
:101F300084E68093A2064AEA51E060E070E088E01F
:101F40000E94740D813009F041C08E010F5F1F4F58
:101F50006E0185E0C80ED11C78018FEF0E94E40C61
:101F6000F70181937F01EC15FD05B9F78B81813075
:101F700009F04FC08C818A3A09F04BC08091A206CB
:101F8000882349F040E050E060E070E489EA0E9474
:101F9000740D8111F3CF8091A2068823D1F140E026
:101FA00050E0BA018AE30E94740D811132C08FEFB4
:101FB0000E94E40CF80181938F01EC15FD05B9F73F
:101FC000898114E086FF26C01CE024C040E050E078
:101FD000BA0189EA0E94740D11E0823010F412E017
:101FE00009EA8091A206882341F040E050E0BA015E
:101FF000802F0E94740D8111F4CF8091A206882356
:1020000041F040E052E060E070E080E10E94740D39
:10201000811110E01093A3060E94420D112309F4D0
:1020200065CF809111028E7F809311028CB58C7FD9
:102030008CBD5CCF8A3010F4805D0895895C089572
:102040007F928F929F92AF92BF92CF92DF92EF9248
:10205000FF920F931F93CF93DF936C01EB018A01E3
:10206000B22E722E740E710E8AE38883822F8295AF
:102070008F700E941A1089838B2D8F700E941A1006
:102080008A83812F82958F700E941A108B83812FF3
:102090008F700E941A108C83C80124E09695879552
:1020A0002A95E1F78F700E941A108D83802F8F7010
:1020B0000E941A108E8380E38F83BB2069F188878A
:1020C00076016E010B2D10E05701A00EB11EF2E05B
:1020D000CF0ED11CAE14BF0411F57194872D8295DB
:1020E0008F700E941A10000F111FC00FD11F898717
:1020F000872D8F700E941A108A871B86DF91CF91DF
:102100001F910F91FF90EF90DF90CF90BF90AF9015
:102110009F908F907F900895739481E3D0CFF701C3
:1021200081917F0182958F700E941A10F60187833A
:10213000F70182914F018F700E941A10F60180877B
:10214000F4018081780EC3CF982F80ED890F8A30FB
:1021500070F08FEB890F863018F489EC890F0895A1
:102160008FE9890F863010F489EAF8CF8FEF089550
:102170009C01680F791F90E080E02617370709F46B
:102180000895F90141919F019427092E0294402D51
:102190004F704927592F5025550F507E4527502DF8
:1021A0005927507F5695092E000C551F96959695E8
:1021B00096959F7195279827842FDFCF682F80E011
:1021C0000C94E50A9F92AF92BF92CF92DF92EF926A
:1021D000FF920F931F93CF93DF93D82E092FC62E14
:1021E000172F7A01E90190930801A901791729F1C4
:1021F0006FEFF701199540E051E04D195109C40FF7
:10220000D51FDD24D394D00E8D2D5E01811710F1E2
:102210004FEF410F401B842F1D1508F480E08D0DFA
:102220008093080150E0542F44271D1510F450E00E
:1022300040E04C0F5D1F6C2D80E0F701DF91CF91E6
:102240001F910F91FF90EF90DF90CF90BF90AF90D4
:102250009F90199499249394980E80930801A50156
:102260006FEF80E0F7011995B394892DCFCF80915E
:10227000380781110FC08091390790913A0720915A
:10228000360730913707BC0161507F4F4FE75CE064
:102290000E94E2108091390790913A07A0913B0784
:1022A000B0913C070196A11DB11D80933907909311
:1022B0003A07A0933B07B0933C0720913607309133
:1022C0003707E091380781E08E0F809338079091AF
:1022D0003507E20FF32FF11D8081E92FF0E0E35D78
:1022E000F84F80839F5F9093350708954F925F92D8
:1022F0006F927F928F929F92AF92BF92EF92FF92D6
:102300000F931F93CF93DF934B0129013A01DC0117
:10231000CB0182279525A427B7259701A801A0FD09
:1023200012C0B201C401DF91CF911F910F91FF90B4
:10233000EF90BF90AF909F908F907F906F905F9045
:102340004F900C94E2106FEF7FEFC4010E94E210F7
:10235000970128193909A801B20190E080E0E3CF84
:10236000CF93DF9300D00F920F92CDB7DEB72FB18E
:1023700032B3809100016091090140B19091060152
:1023800036708074382B592F5C834B835C8170E0EE
:1023900080E090E00F900F900F900F900F90DF91E2
:1023A000CF910895E0EBF0E0808183628083E1EBE0
:1023B000F0E0808189608083809110028150809359
:1023C000B300809110028150990B95958795809369
:1023D000B400089590E0209102012064209302014E
:1023E000209102012F7B209302019F5F8913F3CF7D
:1023F00008950F931F93FB01022F132F9A01138F40
:10240000028FDC018C91833029F489012227332744
:10241000048B158B1F910F9108950F931F93282FF5
:10242000FB01628D738D90E080E0233059F40489C4
:10243000158930E020E0980111270027602B712BCF
:10244000822B932B1F910F9108959B01FC01460F46
:10245000571FD9012F5F3F4F8C9181932417350768
:10246000C1F70895CF93DF93DC01EB01892BF1F0E5
:10247000ED91FC9111973097D9F080818823D9F0A4
:1024800012962D913C91858196812817390799F4F0
:102490008181811110C08091110280FD0CC090E0FB
:1024A00080E0F983E883DF91CF910895F0E0E0E0E8
:1024B00089E090E0F6CF89E090E0F0E0E0E0F1CF55
:1024C000CF93DF93DC01ED91FC911197309759F098
:1024D000EF01CE012991213270F02A33D1F72191F9
:1024E0008E179F0719F08FEF9FEF07C02033D9F7A2
:1024F00001968D939C9390E080E0DF91CF910895B9
:102500000F931F93FC01A081B181CD0101969183AE
:1025100080836C9170E090E080E08B019C0101561B
:102520001109210931090A3111052105310538F454
:1025300060527109810991091F910F9108956038C6
:10254000710581059105C0F36058710981099109F0
:10255000625C7C4FFB01608170E090E080E0ECCF3A
:102560004F925F926F927F92AF92BF92CF92DF9223
:10257000EF92FF920F931F93CF93DF9300D000D081
:1025800000D00F92CDB7DEB78C017E836D835901E9
:102590007A01E114F104F1F4D8018C91811130C079
:1025A000A114B10469F181E090E02A960FB6F89485
:1025B000DEBF0FBECDBFDF91CF911F910F91FF9076
:1025C000EF90DF90CF90BF90AF907F906F905F9033
:1025D0004F900895CE0105960E9480126F837887F0
:1025E00089879A8781E0E81AF1088F819885A98503
:1025F000BA85892B8A2B8B2B61F690E080E0D5CFB2
:102600001A8309838D819E819C838B83E981FA8162
:1026100080818F3311F08A3291F530E020E050E074
:1026200040E0E981FA81CF0101969A838983608134
:102630006F3311F54F5F5F4F61816F3391F36A32F2
:1026400081F36B817C810E94B012892B09F0ABCFA2
:10265000EB81FC81C0800C2C000CDD08EE08FF082B
:10266000CE0105960E948012A114B10431F2CD284A
:10267000CE28CF2829F6C1CF21E030E0DDCFCE0132
:1026800001960E9480122B013C01CE0103960E940C
:1026900080126B017C014C145D046E047F0401F711
:1026A00045284628472809F0B1CF7DCFCF93DF9347
:1026B00000D00F92CDB7DEB7FC019A01AB012250DA
:1026C0003109410951098789908DA18DB28D0297F9
:1026D000A109B109281739074A075B0718F5A18531
:1026E000B2850E94065769837A838B839C8383A576
:1026F00094A5A5A5B6A529813A814B815C81280FB7
:10270000391F4A1F5B1F29833A834B835C8369818E
:102710007A818B819C810F900F900F900F90DF91A9
:10272000CF91089519821A821B821C82F0CFCF9319
:10273000DF939C01FB01480F591FE9012F5F3F4FB9
:10274000888190813196891B990B2417350711F0E8
:10275000009799F3DF91CF910895CF93DF9300D045
:102760000F92CDB7DEB7FC0182819381B0E0A0E08B
:10277000BA2FA92F982F88272181822BBA2FA92F12
:10278000982F88272081AC01422BCD01BA010F90F0
:102790000F900F900F90DF91CF9108950F931F939B
:1027A000CF93DF93FC01EB01198686899789A08D71
:1027B000B18D892B8A2B8B2BF1F1028D138DF801B2
:1027C00090E080E030E020E05EE22F5F3F4F4191FB
:1027D000403291F0453009F445EE2930310531F4AD
:1027E000DE01A80FB91F19965C930196DE01A80FB0
:1027F000B91F19964C9301962B30310531F78C0F88
:102800009D1FDC0119961C92F80183858887C801F9
:102810004C960E94AD13688379838A839B83D80189
:1028200056968D919C9157979F838E8358968D9144
:102830009C919D838C83DF91CF911F910F9108957F
:102840005F926F927F928F929F92AF92BF92CF9240
:10285000DF92EF92FF920F931F93CF93DF9300D0FD
:102860000F920F92CDB7DEB76B837C83242F952E0A
:10287000782E44EEC42E43E0D42E22FD04C03EEC5C
:10288000C32E33E0D32E94EEE92E93E0F92E25FDEE
:1028900004C083EDE82E83E0F82E44EE53E024FDDF
:1028A00002C048ED53E083EE93E092FC02C08DED50
:1028B00093E005EE13E023FD02C009EE13E0A5EE60
:1028C000B3E027FD02C0ADEEB3E0E5EFF3E021FF9A
:1028D00002C0E1EFF3E064EE73E026FF02C069EFAF
:1028E00073E020FF63C025EE33E00F2EF5E0AF2E3E
:1028F000F4E0BF2EF02D91FE06C00F2EF2E0AF2EB9
:10290000F4E0BF2EF02D96FC54C00F2EFDE08F2E6C
:10291000F4E09F2EF02D0F2EF0EE6F2EF02D670CB1
:102920000F2EFEE55F2EF02D561408F449C0672CDB
:10293000DF92CF92FF92EF925F934F939F938F938B
:102940001F930F93BF93AF93FF93EF937F936F9377
:102950003F932F93BF92AF929F928F921F926F924D
:102960001F927F928C818F938B818F9385EA9FE05A
:102970009F938F930E94F54F0FB6F894DEBF0FBE62
:10298000CDBF0F900F900F900F900F90DF91CF91D0
:102990001F910F91FF90EF90DF90CF90BF90AF907D
:1029A0009F908F907F906F905F9008952EEF33E00F
:1029B0009CCF0F2EF8E08F2EF4E09F2EF02DABCFA2
:1029C0006894662465F8B4CFCF93DF9300D00F925C
:1029D0000F92CDB7DEB70E94B011942F752F862FBE
:1029E000A901692F0F900F900F900F900F90DF911A
:1029F000CF910C942014999811B81092070110925D
:102A00000A0110920B0112B88F9AA298819880E067
:102A100079990895909100019064909300018150FC
:102A2000B9F78EE89FE09F938F930E94F54F0F9028
:102A30000F900895CF9379990EC08F989A9AA29A81
:102A4000999A8FEF81B98093070110920A01C1E032
:102A50008C2FCF910895819A8998C0E0799BEDCF12
:102A6000C150E1F786E79FE09F938F930E94F54F57
:102A700081980F900F90ECCFEF92FF920F931F93DE
:102A8000CF93DF930F920F92CDB7DEB77A8369832E
:102A9000CE0101967C0104EA1CE02DEF3FEF40E0FF
:102AA00050E06CEF7FEF80E090E00E9476110E9492
:102AB000FB14829A8A9883E00E94EA118A9A82988B
:102AC00087E00E94EA110E941A150F900F90DF9183
:102AD000CF911F910F91FF90EF9008958EEF97E0A7
:102AE0009F938F930E94F54F0F900F9008952F9210
:102AF0003F924F925F926F927F928F929F92AF928E
:102B0000BF92CF92DF92EF92FF920F931F93CF93DA
:102B1000DF93CDB7DEB7C154D1400FB6F894DEBF16
:102B20000FBECDBF4B015C0129013A0180923907EC
:102B300090923A07A0923B07B0923C071092380758
:102B4000CE01019690933707809336078FE9282EA0
:102B500084E1382E8091390790913A07A0913B0784
:102B6000B0913C0788159905AA05BB0528F04816C1
:102B700059066A067B06D0F4CF5BDE4F0FB6F89499
:102B8000DEBF0FBECDBFDF91CF911F910F91FF90A0
:102B9000EF90DF90CF90BF90AF909F908F907F90FD
:102BA0006F905F904F903F902F900895109235074F
:102BB000BF93AF939F938F933F922F920E94F54FB5
:102BC0000E943711C82E082F10E0F801E757FC4E7D
:102BD0002491CF5BDE4F2883C154D1400F900F90DA
:102BE0000F900F900F900F902330BCF10E9437117F
:102BF000D82ECF5BDE4F8881C154D1408E3074F126
:102C00000E943711982F07571D4EF8010491E02FAD
:102C1000EE0FE00FF0E0ED54FE4E9E012F5F3E4FB1
:102C20007901A9014D5F5F4F8491D9012F5F3F4F1B
:102C30008C93319624173507B9F7CF5BDE4FE881C7
:102C4000C154D140E150E23108F0E5C0F0E08827FE
:102C5000EE5DF84A8F4F0C94F04DD12C90E0D3CF1D
:102C600081EB91E19F938F9387010D5F1F4F1F931E
:102C70000F930E941D50080F191F0F900F900F9077
:102C80000F90F801108210E080913507181708F4B2
:102C9000C6C014E0181B115008F0D4C010E0809199
:102CA0003507181708F4D7C014E0181B115008F0A6
:102CB000F2C0FF92EF9289E894E19F938F930E9474
:102CC000F54F0F900F900F900F9044CF8C2D829561
:102CD0008770805DF701838387010C5F1F4F8D2D07
:102CE00090E0B0E0A0E0D7FE05C09A95092E000C58
:102CF000AA0BBB0B4091390750913A0760913B07F3
:102D000070913C07840F951FA61FB71FBF93AF9309
:102D10009F938F938AEA91E19F938F931F930F93D1
:102D20000E941D50080F191F0FB6F894DEBF0FBE8A
:102D3000CDBFA7CF87010D5F1F4FD1CF1F92DF926D
:102D400082EA91E19F938F9387010D5F1F4F0FC020
:102D50008C2D82958770805DF701838387010C5FDE
:102D60001F4F1F92DF928BE991E19F938F931F93E7
:102D70000F930E941D50080F191F0F900F900F9076
:102D80000F900F900F907DCF87010D5F1F4FE9CF00
:102D90001F92DF9282E991E1D5CF1F92DF9289E8FD
:102DA00091E1D0CF1F92DF9280E891E1CBCF1F92CB
:102DB000DF9285E791E1C6CF1F92DF928AE691E12B
:102DC000C1CF1F92DF921F929F938FE591E19F9356
:102DD0008F9387010D5F1F4FA1CF1F92DF921F922C
:102DE0009F9382E591E1F3CF1F92DF921F929F9311
:102DF00085E491E1ECCF1F92DF921F929F93E8E36D
:102E0000F1E1FF93EF93E5CF1F92DF921F929F9323
:102E1000E9E2F1E1F6CF87010D5F1F4F32CFE12FDD
:102E2000F0E0E35DF84F80811F928F9389E994E190
:102E30009F938F930E94F54F1F5F0F900F900F90FD
:102E40000F9022CF85E994E19F938F930E94F54FD5
:102E50000F900F9020CFE12FF0E0E35DF84F8081DD
:102E600090EE980F9F3570F41F928F9382E994E152
:102E70009F938F930E94F54F0F900F900F900F909C
:102E80001F5F0DCF80E994E19F938F930E94F54FD0
:102E90000F900F90F5CF8EE894E19F938F930E944F
:102EA000F54F0F900F9002CFCF92DF92EF92FF92EB
:102EB0000F931F93CF93DF938C016A017B01E9018C
:102EC000209709F46FC08091110280FD6EC080913F
:102ED000110282FD6CC08091A30683FD07C099E0BA
:102EE000CC0CDD1CEE1CFF1C9A95D1F7C130D1052E
:102EF00071F5B701A60188E10E94740D882391F055
:102F0000C1E0D0E00E94420D81E090E0CD2B09F4B9
:102F100080E0DF91CF911F910F91FF90EF90DF90B4
:102F2000CF90089584EF91E00E94460D892B41F3E4
:102F30008EEF0E94E40CC8010E94EA0CAC0121E073
:102F400090E0452B09F020E0C22FD92FDBCF86700F
:102F500031F0AE0170E060E087E90E94740DB701C6
:102F6000A60189E10E94740D8111CCCF84EF91E01C
:102F70000E94460D892B59F08CEF0E94E40CC80189
:102F80000E94EA0C892B19F01E5F219779F784EFD4
:102F900091E00E94460D892B09F4B2CF8DEF0E947B
:102FA000E40CB0CF84E090E0B4CF83E0FCCF82E0CB
:102FB000FACF4F925F926F927F928F929F92AF92D1
:102FC000BF92EF92FF920F931F93CF93DF93EC0189
:102FD0008B81811112C010E000E0C801DF91CF9118
:102FE0001F910F91FF90EF90BF90AF909F908F90A7
:102FF0007F906F905F904F9008958981882319F09A
:1030000001E010E0EACF7E0183E3E80EF11C4FA55A
:1030100058A969A97AA921E030E0C7010E94541794
:103020008C01892B69F71B824FA558A969A97AA938
:103030008B8D9C8DAD8DBE8D8BA09CA0ADA0BEA0B8
:103040002A013B01481859086A087B0853014201CC
:1030500088169906AA06BB0608F0BDCF2A81223041
:1030600009F0B9CF29812111B6CF480F591F6A1F26
:103070007B1F21E030E0C7010E945417AECFAF9212
:10308000BF92CF92DF92EF92FF920F931F93CF9355
:10309000DF93EC016A017B010E94D9178C0181E06A
:1030A00090E00115110531F5A601B701CE010E948E
:1030B00056136B017C01CFA6D8AAE9AAFAAA5E0131
:1030C00083E3A80EB11C9E012D5C3D4FC501FC01A0
:1030D0000196108282179307D1F789859A85081780
:1030E000190798F081E090E029853A85201731078B
:1030F00009F480E0DF91CF911F910F91FF90EF9045
:10310000DF90CF90BF90AF90089589818111EACF71
:1031100021E030E0B701A601400F511F611D711D74
:10312000C5010E945417892BE9F60F5F1F4FD5CFB9
:10313000CF93DF93EC010E94D917009709F061C08B
:103140008881833009F04FC08C81813009F04BC0F9
:10315000CE01C396AE014D5C5D4F9C01F9012F5F1E
:103160003F4F108242175307C9F725E5FE01EF5C78
:10317000FD4F20832AEA3196208322E52BAB2CAB2E
:1031800021E62DAB31E43EAB42E77B97408331969D
:10319000408331963083319620834F8558896989E1
:1031A0007A89319640835183628373834B855C8532
:1031B0006D857E85349640835183628373834F8D02
:1031C00058A169A17AA14F5F5F4F6F4F7F4F4FA703
:1031D00058AB69AB7AAB2981211104C021E030E002
:1031E0000E9454171C82898181110EC070E060E03A
:1031F0000E940E0E31E020E0892B09F430E0832F8D
:10320000922FDF91CF91089581E090E0FACFCF9295
:10321000DF92EF92FF92CF93DF93EC016A017B0183
:103220008FA598A9A9A9BAA930E020E08C159D0521
:10323000AE05BF0511F1CE010E94D9179C01892B63
:10324000E1F4898181110FC08091110280FD0BC0D2
:1032500021E030E0B701A601CE01C3960E94BF0D68
:103260009C01892B31F021E030E0CC24CA94DC2C85
:103270007601CFA6D8AAE9AAFAAAC901DF91CF910F
:10328000FF90EF90DF90CF900895AF92BF92CF92D2
:10329000DF92EF92FF920F931F93CF93DF9300D0B3
:1032A0000F92CDB7DEB78C016A017B0182E0C816B0
:1032B000D104E104F10408F4B2C0F8018789908DCB
:1032C000A18DB28DC816D906EA06FB0608F0A7C084
:1032D0008081823009F462C0833009F47CC081307F
:1032E00009F09DC0CA0196958795840F951F9A8312
:1032F0008983892F9927869543A154A165A176A139
:10330000480F591F611D711DC8010E940719892BA3
:1033100091F06FEF7FEFCB010F900F900F900F9018
:10332000DF91CF911F910F91FF90EF90DF90CF90A1
:10333000BF90AF900895A980BA809FEFA91AB90AEB
:10334000E981FA81F170E00FF11FF3A9F983C5015A
:10335000892F99278695F80143A154A165A176A1EB
:10336000480F591F611D711DC8010E940719892B43
:1033700081F695013170200F311FF90183A9F98180
:10338000782F6F2FC0FE08C0E4E076956795EA9528
:10339000E1F790E080E0C0CF7F70FBCF77276F2D03
:1033A0005E2D4D2D83A194A1A5A1B6A1480F591F53
:1033B0006A1F7B1FC8010E940719892B09F0A9CF3A
:1033C0009601220F331F2E7F3170200F311FF9011C
:1033D00063A974A9DECF83A194A1A5A1B6A137E00A
:1033E00076956795579547953A95D1F7480F591FA8
:1033F0006A1F7B1FC8010E940719892B09F089CF1A
:103400000D5C1F4FC601880F991F880F991F8C7F75
:103410009170800F911F0E94AD139F707DCF61E06E
:1034200070E080E090E078CF4F925F926F927F9251
:103430008F929F92AF92BF92CF92DF92EF92FF92C4
:103440000F931F93CF93DF93EC016A017B010881F7
:103450001981CE86DF86E88AF98A8E809F80A884CB
:10346000B98481149104A104B10409F069C0D801A0
:103470008C91833058F097968D919D910D90BC91D1
:10348000A02D0097A105B10509F058C0F80187816A
:103490009085B0E0A0E0B701A601E5E076956795DC
:1034A00057954795EA95D1F7481759076A077B075B
:1034B00098F082E090E0DF91CF911F910F91FF9003
:1034C000EF90DF90CF90BF90AF909F908F907F90C4
:1034D0006F905F904F900895F80187A190A5A1A5E6
:1034E000B2A58E8B9F8BA88FB98F8A8A9B8AAC8A54
:1034F000BD8A4E895F89688D798D411551056105B9
:103500007105B9F2D701C60129E0B695A79597953F
:1035100087952A95D1F7840F951FA61FB71F8E8B0D
:103520009F8BA88FB98F0D5C1F4FF1E0DF22C00E7B
:10353000D11EDB8ECA8E90E080E0BDCF4C015D01D4
:10354000D80119964D905C90712C612C39E0440C97
:10355000551C661C771C3A95D1F7B501A401C4141B
:10356000D504E604F70440F4C8010E9456136E8B9C
:103570007F8B888F998FB9CF888199810E94451957
:103580004B015C01BFEF8B169B06AB06BB06B9F087
:10359000E2E08E169104A104B10408F48ACFF80188
:1035A0008789908DA18DB28D88169906AA06BB06D3
:1035B00008F07FCFC418D508E608F708CECF81E021
:1035C00090E079CFEF92FF920F931F93CF93DF9309
:1035D0000F920F92CDB7DEB78C01BE016F5F7F4FA8
:1035E0000E9432129C01892B09F050C0F801868597
:1035F00086FF40C0448D558D668D778D89819A8177
:103600000E9407199C01892B09F040C0F801E0A035
:10361000F1A0F701838580628387F80126813781D5
:1036200040855185B701808191810E94F911F8018F
:1036300082859385A485B585F701848F958FA68FA4
:10364000B78F80EC868B8CE9878B86E2808F8CE449
:10365000818F128A138A89819A8121E0FC01238358
:103660000E9498189C01F80186858F7B868721151A
:10367000310561F4BE016F5F7F4FC8010E943212B5
:103680009C01892B19F4F80111821082C9010F9055
:103690000F90DF91CF911F910F91FF90EF900895C0
:1036A000CF93DF930E94E21AEC01009799F0AC01EE
:1036B00070E060E084E49EE00E94CA0C9F938F93C8
:1036C00085E89DE09F938F930E94F54F0F900F9098
:1036D0000F900F90CE01DF91CF9108952F923F92DE
:1036E0004F925F926F927F928F929F92AF92BF9212
:1036F000CF92DF92EF92FF920F931F93CF93DF93BE
:1037000000D00F92CDB7DEB78C014B016A012B833D
:103710003C83EB81FC8111821082BE016F5F7F4F81
:103720000E9432127C01892B09F05BC0F801878569
:10373000E82EF12C811155C0868580FF32C182852B
:103740009385A485B5854089518962897389841BD5
:10375000950BA60BB70BA60170E060E084179507E8
:10376000A607B70708F46C017601E114F104C9F16A
:10377000F80180899189A289B389AC01BD0151709A
:1037800066277727452B462B472B09F0E2C0E981B6
:10379000FA81A184B284F1E0AF1AB108AC01BD0195
:1037A000E9E07695679557954795EA95D1F7A42274
:1037B000B522A114B10409F04AC0F801892B8A2B63
:1037C0008B2B39F5468157816085718542305105D3
:1037D0006105710550F582E0F801878752E0E52E1A
:1037E000F12CC7010F900F900F900F90DF91CF91A8
:1037F0001F910F91FF90EF90DF90CF90BF90AF900F
:103800009F908F907F906F905F904F903F902F9000
:1038100008954489558966897789808191810E94BC
:103820004519462F572FBC01D1CF4F3FFFEF5F0700
:103830006F077F0739F481E0F8018787EE24E3946E
:10384000F12CCFCFF801448B558B668B778B298079
:103850003A80F8014489558966897789C1010E94B7
:1038600056132B013C01411451046104710409F405
:10387000B2CF4A0C5B1C611C711CE114F2E0FF0624
:1038800008F462C06701CD2CDD24C694F101818566
:10389000928595012C0D3D1D8217930718F46C013C
:1038A000CA18DB08F10181818111C5CFC114D1048F
:1038B00011F28091110280FDBECF9601B301A201E9
:1038C000C4010E94BF0D892B09F0B5CFE981FA81AF
:1038D00083818823E1F087A590A9A1A9B2A98419C1
:1038E0009509A609B709A60170E060E0841795075D
:1038F000A607B70760F4BF016D5C7F4F982F88273C
:10390000990F40E052E0880D991D0E942512DC2C91
:10391000CC24DD0CEC18FD08EB81FC8180819181C9
:103920008C0D9D1D918380838C0C9D1CF8018089DA
:103930009189A289B3898C0D9D1DA11DB11D808B1C
:10394000918BA28BB38B11CFF801408E518E628E7A
:10395000738EF80180899189917020E032E0281BF4
:10396000390B67012E153F0508F46901F801408DF8
:10397000518D628D738D89819A810E940719892BDF
:1039800009F059CF69817A816D5C7F4FF801808998
:1039900091899170680F791FA601C4010E942512B8
:1039A000B9CF87E0E82EF12C1CCFCF93DF930E9494
:1039B0006E1BEC01009799F0AC0170E060E084E4CC
:1039C0009EE00E94CA0C9F938F938DE99DE09F9388
:1039D0008F930E94F54F0F900F900F900F90CE0194
:1039E000DF91CF910895CF93DF9300D0CDB7DEB7AD
:1039F000809112028E3FD9F49E012F5F3F4F41E02C
:103A000050E0BE016D5F7F4F84EA96E00E94D51CB6
:103A1000892B39F080E00F900F900F90DF91CF91BC
:103A2000089589819A81892B39F08B81F4CF8F3F5A
:103A300089F30E94400BEFCF8AE1EDCFCF93DF9364
:103A40000F92CDB7DEB730E020E041E050E0BE019C
:103A50006F5F7F4FFC01848595850E946E1B892BCB
:103A600041F48981082E000C990B0F90DF91CF91C2
:103A700008958FEF9FEFF9CFCF93DF93EC011B8277
:103A80008FEF9FEFDC018FA798ABA9ABBAABCE014C
:103A90000E940719892B31F5FE01EF5CFD4F8081F3
:103AA000918185359A4A11F58BA98B3E19F0885E74
:103AB0008230F0F443E050E062E174E0CE018759D7
:103AC0009F4F0E949713892B59F045E050E066E123
:103AD00074E0CE018B579F4F0E949713892B41F4BE
:103AE00080E001C084E0DF91CF91089583E0FBCFB7
:103AF00082E0F9CF2F923F924F925F926F927F9226
:103B00008F929F92AF92BF92CF92DF92EF92FF92ED
:103B10000F931F93CF93DF93CDB7DEB7A4970FB664
:103B2000F894DEBF0FBECDBF6B01F42EDB011D92FA
:103B30001C920E9460129C0197FD85C2FC01EE0F51
:103B4000FF1FE356F94F008111810115110509F49A
:103B50007EC2F60111830083E894F0F8D8018C91BD
:103B6000882351F111968C91811126C08091110208
:103B700080FD22C0FF2009F46EC282FF6CC21AE0F1
:103B8000E12EF12CC701A4960FB6F894DEBF0FBE4C
:103B9000CDBFDF91CF911F910F91FF90EF90DF90FC
:103BA000CF90BF90AF909F908F907F906F905F90DD
:103BB0004F903F902F900895F80110822183222387
:103BC00021F0B3E0EB2EF12CDDCF0E94480F80FDF9
:103BD000F8CFFF2011F082FDD2CF40E050E0BA01D3
:103BE000C8010E943C1D823009F0E6C16801FBE07B
:103BF000CF1AFEEFDF0A9E012F5F3F4F7901480188
:103C00003BEC831A3DEF930A5701D6018C9140E0BB
:103C100050E0BA01882339F0C60104960E94AD1322
:103C2000462F572FBC01F501419351936193719336
:103C30005F01F0E1CF0ED11CC814D90431F7670140
:103C400020E1C20ED11CD7018D909D90AD90BD900A
:103C50007D0183E081149104A104B10409F4A2C19F
:103C6000B501A401C8010E943C1D823008F09AC130
:103C7000F80186AD97AD8115924009F0A5C1F80114
:103C8000E75BFF4F80819181009709F4A1C19C01FE
:103C900050E040E0298B3A8B4B8B5C8B89899A8969
:103CA000AB89BC89F801838F948FA58FB68FED5BAC
:103CB000FF4F2080D80112962C9212978FEF820D21
:103CC000823008F081C133973080832D90E0F80175
:103CD00092878187009709F477C19C0121503109AF
:103CE00082239323892B09F06FC1EC5BFF4FC080C7
:103CF000D1801896DC92CE9217977601BFE0EB2226
:103D0000FF24E114F10409F05FC132964080518034
:103D1000712C612C4114510439F4C8018D5A9F4F04
:103D20000E94AD132B013C01F801EF5BFF4F0190A6
:103D3000F081E02D309709F447C1A22DB0E0298928
:103D40003A894B895C890E94065769A37AA38BA3A1
:103D50009CA39F0150E040E0298F3A8F4B8F5C8FEE
:103D6000C601F4E096958795FA95E1F7280F391F7B
:103D7000411D511DDA01C90129A13AA14BA15CA144
:103D8000280F391F4A1F5B1F2D8B3E8B4F8B588F7F
:103D9000421653066406750608F416C1D301C20123
:103DA000821B930BA40BB50B8D8F9E8FAF8FB8A387
:103DB000432C512C712C612CBC01CD01A30192012B
:103DC0000E94E4568D8D9E8DAF8DB8A1841595050A
:103DD000A605B70508F4F8C0263F9FEF3907490745
:103DE0009FE0590708F0F0C0E3E03E2E263FAFEF1A
:103DF0003A074105510550F433243394263FFFE040
:103E00003F074105510510F072E0372E29013A01B4
:103E1000B2E04B0E511C611C711CF801478A508E98
:103E2000618E728E878E90A2A1A2B2A2898D9A8D88
:103E3000AB8DBC8D880D991DAA1DBB1D83A394A3BA
:103E4000A5A3B6A34D895E896F89788D480D591D4C
:103E50006A1D7B1D43A754A765A776A7F3E03F1211
:103E6000C1C0F801E35AFF4F808191818C299D29BF
:103E7000892B09F0A9C0C801815A9F4F0E94AD1338
:103E8000D80197966D937D938D939C939A9762E05A
:103E9000440C551C661C771C6A95D1F73FEF430E06
:103EA00031E0531E611C711C39E07694679457947D
:103EB00047943A95D1F789899A89AB89BC89841549
:103EC0009505A605B70508F47FC08FEF9FEFDC01CD
:103ED000F8018787908BA18BB28B83879487A58706
:103EE000B68780E88483F3E03F1247C0F801ED59BC
:103EF000FF4F80819181019709F03FC0B501A40176
:103F00004F5F5F4F6F4F7F4FC8010E940719892B8A
:103F1000A1F5D80114961C92F801EF5CFD4F808149
:103F2000918185359A4A49F5C801C3960E94AD131F
:103F3000623572458146914401F5C801895E9D4F05
:103F40000E94AD136237724781449146B1F4C801B3
:103F5000855E9D4F0E94AD13D8011F966D937D9392
:103F60008D939C935297C801815E9D4F0E94AD1323
:103F7000F8016387748785879687D8013C92809182
:103F80009B0690919C06019690939C0680939B06BD
:103F900016969C938E931597F801138A148A158AA6
:103FA000168AF0CDCE14DF0409F04DCE843061F4D2
:103FB000EE24E394F12CE6CD8430D1F3812C912CC6
:103FC0005401823008F454CEADE0EA2EF12CDACD63
:103FD000C801895A9F4F0E94AD13698B7A8B8B8BD6
:103FE0009C8B5CCECD2881F329A13AA14BA15CA189
:103FF000820F931FA41FB51FF80187A390A7A1A745
:10400000B2A7F2E03F1205C0440C551C661C771C99
:1040100045CFA3E0B0E0A30192010E9406576D8B4B
:104020007E8B8F8B988FDC01CB01B695A7959795EA
:10403000879521E04222552466247724480E591E94
:104040006A1E7B1E2BCF2BE0E22EF12C9BCD9CE039
:10405000E92EF12C97CDF12CE12C94CD2F923F92AB
:104060004F925F926F927F928F929F92AF92BF9288
:10407000CF92DF92EF92FF920F931F93CF93DF9334
:1040800000D000D0CDB7DEB75C016A017B0128010A
:10409000390122E0C216D104E104F10408F401C19F
:1040A000FC018789908DA18DB28DC816D906EA06CC
:1040B000FB0608F0FBC08081823009F499C0833090
:1040C00009F4B5C0813009F0F6C08A01169507954C
:1040D000040F151FC801892F9927869543A154A164
:1040E00065A176A1480F591F611D711DC5010E9470
:1040F00007198D839E832D813E81232B09F056C0A5
:10410000150133E3230E311C48014FEF841A940A42
:104110001170F101E00FF11F842DA70196012170AC
:1041200033274427552729833A834B835C83C0FE7A
:1041300007C080818F7040E1449E90011124822B42
:10414000808381E0D50113968C93139793964D91BC
:104150005D916D917C919697C401892F99278695E1
:10416000480F591F611D711DC5010E9407198D83DC
:104170009E83ED81FE81EF2BC9F4F1E09F22F101D6
:10418000E80DF91D29813A814B815C81232B242B79
:10419000252B39F164E076946794579447946A9597
:1041A000D1F7408281E0D50113968C938D819E8159
:1041B00026960FB6F894DEBF0FBECDBFDF91CF912C
:1041C0001F910F91FF90EF90DF90CF90BF90AF9035
:1041D0009F908F907F906F905F904F903F902F9027
:1041E00008958081807F352D3F70432E482AD9CF96
:1041F00077276F2D5E2D4D2D83A194A1A5A1B6A18A
:10420000480F591F6A1F7B1FC5010E9407198D8324
:104210009E832D813E81232B49F6F601EE0FFF1F71
:10422000EE7FF170EA0DFB1D14AB03ABBBCF83A196
:1042300094A1A5A1B6A137E07695679557954795C6
:104240003A95D1F7480F591F6A1F7B1FC5010E947D
:1042500007198D839E832D813E81232B09F0A6CFE4
:10426000C501C396CC0CDD1CCC0CDD1C3CEFC3227D
:1042700031E0D322C80ED91EC6010E94AD134FE013
:104280007422DC01CB0188279927AA27B07F8429D3
:104290009529A629B729F60180839183A283B38348
:1042A00081CFE2E0F0E0FE83ED8380CF22E030E0DA
:1042B0003E832D837BCF42E050E05E834D8376CFFB
:1042C0004F925F926F927F928F929F92AF92BF9226
:1042D000CF92DF92EF92FF920F931F93CF93DF93D2
:1042E0008C012A013B01FC01C081D18141145104A0
:1042F00061047104B9F48B849C84AD84BE84811400
:104300009104A104B10449F08F89988DA98DBA8DCB
:1043100088169906AA06BB06C8F1812C912C540177
:10432000839434C0CE010E9445196B017C01F2E0F8
:10433000CF16D104E104F104B8F4C12CD12C7601DC
:10434000C394C701B601DF91CF911F910F91FF90E8
:10435000EF90DF90CF90BF90AF909F908F907F9025
:104360006F905F904F9008958FEFC816D806E806BB
:10437000F80609F4DCC08F89988DA98DBA8D530198
:104380004201C816D906EA06FB06D8F28F8598893D
:10439000A989BA89892B8A2B8B2B21F4C12CD12C8A
:1043A0007601CFCF84149504A604B70409F045C064
:1043B00075016401EFEFCE1ADE0AEE0AFE0A8F895C
:1043C000988DA98DBA8DC816D906EA06FB0628F085
:1043D00022E0C22ED12CE12CF12CB701A601F8016C
:1043E000808191810E944519462F572FBC01413091
:1043F00051056105710509F4A0CF4F3FFFEF5F073D
:104400006F077F0709F493C0452B462B472B09F410
:1044100051C08B859C85AD85BE8582309105A105F7
:10442000B10558F04F89588D698D7A8D841795079D
:10443000A607B70710F44C015D01750164018FEF09
:10444000C81AD80AE80AF80A8F89988DA98DBA8DFA
:10445000C816D906EA06FB0660F0E2E08E16910463
:10446000A104B10408F49ACF92E0C92ED12CE12C1A
:10447000F12CB701A601F801808191810E944519B4
:10448000462F572FBC014115510561057105C1F03B
:10449000413051056105710509F44FCF4F3F5F4F22
:1044A0006F4F7F4F09F443C0C814D904EA04FB04DA
:1044B00031F674CFC114D104E104F10409F4BDCF85
:1044C0000FEF1FEF9801B701A601CE010E942E2029
:1044D0009C01892B41F54114510461047104C9F414
:1044E000CB86DC86ED86FE868F859889A989BA8978
:1044F0004F89588D698D7A8D425051096109710932
:10450000481759076A077B07B8F48C8181608C8350
:1045100018CF97018601B301A201CE010E942E207F
:104520009C01892BE9F22130310509F006CFCC241A
:10453000CA94DC2C760105CF0197A109B1098F87B8
:10454000988BA98BBA8BE1CF4F925F926F927F923B
:10455000AF92BF92CF92DF92EF92FF920F931F9391
:10456000CF93DF9300D000D000D00F92CDB7DEB74D
:104570008C016A017B01BE016F5F7F4F0E94321286
:104580005C01892B09F016C1D8011F968C911F97E9
:10459000A82EB12C81110EC11A968D919D910D906E
:1045A000BC91A02D8C159D05AE05BF0530F4F8011A
:1045B000268521FD02C06C017D01F8018089918969
:1045C000A289B389108A118A128A138AC114D1046C
:1045D000E104F10481F5C12CD12C7601F801808928
:1045E0009189A289B3894285538564857585481769
:1045F00059076A077B0738F482879387A487B587B2
:104600002685206426879170AA27BB27892B8A2BB1
:104610008B2B09F4CFC0F801808D918DA28DB38DC5
:104620008C159D05AE05BF0509F4C4C0C08ED18EA2
:10463000E28EF38EBFC0E981FA8141845284712CED
:10464000612C39E0440C551C661C771C3A95D1F757
:104650000097A105B10509F48DC09C01AD01215061
:104660003109410951092B833C834D835E83D70176
:10467000C6010197A109B109BC01CD01A3019201B5
:104680000E94E4562F83388749875A876B817C8143
:104690008D819E81A30192010E94E4568F819885AD
:1046A000A985BA8582179307A407B50708F462C0E5
:1046B00088279927DC0184199509A609B7092B8158
:1046C0003C814D815E8182239323A423B523F8018D
:1046D000808B918BA28BB38BC81AD90AEA0AFB0A8A
:1046E00044895589668977894115510561057105A8
:1046F00009F471CFD80150968D919D910D90BC9188
:10470000A02D8F839887A987BA874C145D046E0407
:104710007F0408F480C0F80180899189A289B38957
:104720008C0D9D1DAE1DBF1D808B918BA28BB38BFD
:10473000D701C6019170AA27BB27892B8A2B8B2B07
:1047400009F449CF89819A810E945613462F572F29
:10475000BC01411551056105710531F189E0F694FF
:10476000E794D794C7948A95D1F7C40ED51EE61E58
:10477000F71E34CFD80116964D915D916D917C91C5
:1047800019974115510561057105E9F540E050E0C3
:10479000BA01C8010E946021462F572FBC01413049
:1047A000510561057105E1F482E0F801878722E097
:1047B000A22EB12CC5012A960FB6F894DEBF0FBE0B
:1047C000CDBFDF91CF911F910F91FF90EF90DF90C0
:1047D000CF90BF90AF907F906F905F904F90089573
:1047E0004F3FFFEF5F076F077F0741F481E0D8017C
:1047F0001F968C93AA24A394B12CDCCFF801468396
:10480000578360877187D80154964D935D936D935C
:104810007C93579769CFD701C60184199509A609DA
:10482000B7098B839C83AD83BE838F819885A985CF
:10483000BA85840D951DA61DB71DF801808B918B3F
:10484000A28BB38B868581FF0EC0C8010E946021B8
:104850006B017C01C114D104E104F10451F440E086
:1048600050E0BA0158CF808191810E9445196B01B7
:104870007C01BFEFCB16DB06EB06FB0609F4B6CFD7
:10488000E2E0CE16D104E104F10408F48DCFE98111
:10489000FA818789908DA18DB28DC816D906EA0656
:1048A000FB0608F081CFD8015496CD92DD92ED92AF
:1048B000FC925797B701A601CB80DC80ED80FE808B
:1048C00019CF2F923F924F925F926F927F928F9269
:1048D0009F92AF92BF92CF92DF92EF92FF920F938F
:1048E0001F93CF93DF9300D000D0CDB7DEB78C01FC
:1048F0004B016A012B833C83EB81FC811182108286
:10490000BE016F5F7F4F0E9432125C01892B09F05C
:1049100064C0F8018785A82EB12C81115EC0868500
:1049200081FF8FC180899189A289B389AC01BD01C2
:104930004C0D5D1D611D711D481759076A077B07E6
:1049400018F46C01C094D094C114D10409F441C08E
:10495000F80180899189A289B389AC01BD015170A8
:1049600066277727452B462B472B09F03EC1E98167
:10497000FA812185328521503109AC01BD01E9E080
:104980007695679557954795EA95D1F719012422B1
:1049900035222114310409F069C0F801892B8A2BD2
:1049A0008B2BA9F54681578160857185411551058D
:1049B0006105710589F540E050E0BA01C8010E9427
:1049C0006021462F572FBC01411551056105710526
:1049D00019F5F801868580648687C50126960FB68D
:1049E000F894DEBF0FBECDBFDF91CF911F910F9125
:1049F000FF90EF90DF90CF90BF90AF909F908F90FF
:104A00007F906F905F904F903F902F9008954489D2
:104A1000558966897789D2CF413051056105710585
:104A200039F482E0F801878752E0A52EB12CD5CF6A
:104A30004F3FFFEF5F076F077F0739F481E0F80111
:104A40008787AA24A394B12CC8CFF801448B558B37
:104A5000668B778B86819781A085B185892B8A2B80
:104A60008B2B21F4468357836087718789819A81D4
:104A7000FC0147A450A861A872A8F801408D518D8F
:104A8000628D738D441655066606770621F40E94E2
:104A9000D917892B99F629813A813E832D83F80114
:104AA0004489558966897789C9010E9456132B016B
:104AB0003C01411451046104710409F4B2CF420C69
:104AC000531C611C711CC114F2E0DF0608F46DC0B8
:104AD0007601EF2CFF24E694ED81FE81818592859D
:104AE00091012E0D3F1D8217930718F47C01E218E7
:104AF000F308ED81FE8181818111A0CF9701B3017F
:104B0000A201C4010E945417892B09F097CF898113
:104B10009A81FC0147A550A961A972A944195509B8
:104B2000660977092701712C612C44155505660526
:104B3000770570F4542F4427550FB401640F751F87
:104B400040E052E0C3960E942512E981FA81138267
:104B5000FE2CEE24FF0CCE18DF08EB81FC81808157
:104B600091818E0D9F1D918380838E0C9F1CF80177
:104B700080899189A289B3898E0D9F1DA11DB11DC8
:104B8000808B918BA28BB38B428553856485758511
:104B9000481759076A077B0710F4AC01BD01F801FB
:104BA0004287538764877587CFCEF8014089518942
:104BB0006289738982859385A485B58548175907CD
:104BC0006A077B0768F08D819E810E94D917892B27
:104BD00009F034CFE981FA8147A650AA61AA72AAE6
:104BE000F801408E518E628E738EF8018089918912
:104BF000917020E032E0281B390B76012C153D0521
:104C000008F47901F801408D518D628D738D898191
:104C10009A810E940719892B09F010CF29813A81C6
:104C20002D5C3F4FF801808991899170A701B401F3
:104C3000820F931F0E942512E981FA8121E02383CC
:104C40008ACF87E0A82EB12CC8CECF93DF930E94E5
:104C50006124EC01009799F0AC0170E060E084E41D
:104C60009EE00E94CA0C9F938F9385EB9DE09F93DB
:104C70008F930E94F54F0F900F900F900F90CE01E1
:104C8000DF91CF910895CF92DF92EF92FF920F9331
:104C90001F93CF93DF9300D000D000D00F92CDB7F9
:104CA000DEB78C01BC016F5F7F4F9E01285F3F4FD5
:104CB0004FE75CE00E94E21088859985BC016C5F3B
:104CC0007F4F9E012F5F3F4F4FE75CE00E94E21055
:104CD00080912C078823E1F11F930F9386E990E1DF
:104CE0009F938F930E94F54F89858F9388858F932B
:104CF00085E890E19F938F930E94F54F89811F92E1
:104D00008F9389E790E19F938F930E94F54F8A815B
:104D10001F928F938CE690E19F938F930E94F54FA3
:104D20008C818F938B818F938FE590E19F938F93ED
:104D30000E94F54F8D811F928F9382E590E19F93A2
:104D40008F930E94F54F0FB6F894DEBF0FBECDBF14
:104D50008981813041F008F487C08250823008F4A4
:104D600082C081E008C09A81933071F198F491304B
:104D7000E9F19230C9F02A960FB6F894DEBF0FBE63
:104D8000CDBFDF91CF911F910F91FF90EF90DF90FA
:104D9000CF900895943089F1953069F70E94F31C03
:104DA0008D838823D9F303C00E94F31C8D838885EB
:104DB0009985BC016C5F7F4F9E012F5F3F4F44EA96
:104DC0005CE00E94E21012C06D816A87809114023B
:104DD0008E3F71F49E012A5F3F4F41E050E0BE01DB
:104DE000665F7F4F88EE96E00E94252680E0C3CF65
:104DF0008F3FE1F30E94E50AF9CF809114028E3FC4
:104E0000A1F08F3F81F080FBCC24C0F8D12C86E448
:104E10008C9DF0018D9DF00D1124E25CF84F848192
:104E20009581892B11F080E001C082E090911202FF
:104E30009E3F11F48160BACF9F3F09F4B7CF90FB3A
:104E4000EE24E0F8F12C96E49E9DF0019F9DF00D7C
:104E50001124E653F84F2481358191E0232B09F486
:104E600090E0892BA3CF87CF8FEF85CF4F925F92B2
:104E70006F927F929F92AF92BF92CF92DF92EF920A
:104E8000FF920F931F93CF93DF9300D000D000D0F9
:104E9000CDB7DEB72B013C0110923D074114510400
:104EA0006104710429F081E0481A51086108710811
:104EB0000E94FB14E12C81EAC82E80E1D82E96ECEA
:104EC000A92E90E1B92E80913D07811141C08091BA
:104ED00002018064809302010E94B011F22E2983A6
:104EE0003A834B835C836D830B811C81809102012B
:104EF0008F7B80930201F6FE63C080913202909115
:104F0000330208171907D8F18091340290913502C5
:104F100080179107A0F11F930F938BE091E19F936E
:104F20008F930E94F54F0E941A15C801B0E0A0E0CF
:104F30008E839F83A887B9879801AD01CA01B80104
:104F40000E9477150E942B0B0F900F900F900F90DF
:104F500029960FB6F894DEBF0FBECDBFDF91CF917B
:104F60001F910F91FF90EF90DF90CF90BF90AF9087
:104F70009F907F906F905F904F900C941A15809146
:104F80001E0290911F0208171907D0F0809120028D
:104F9000909121028017910798F00E941A15C8017C
:104FA000B0E0A0E08E839F83A887B9879801AD0108
:104FB000CA01B8010E9477150E942B0BEE24E394DE
:104FC0008A8181FF3BC080912A0290912B020817B1
:104FD0001907C8F080912C0290912D02801791073B
:104FE00090F01F930F9384EF90E19F938F930E9413
:104FF000F54F602F1C830B834F2D5A817C818D814F
:105000000E9420149FCF80911602909117020817DA
:10501000190798F180911802909119028017910751
:1050200060F1F982602F1C830B834F2D5A817C81A4
:105030008D810E9420140E942B0B2DC080912E0286
:1050400090912F020817190760F08091300290911B
:1050500031028017910728F01F930F938DED90E197
:10506000C4CF80911A0290911B020817190728F0EB
:1050700080911C0290911D02D1CF809122029091CB
:1050800023020817190738F0809124029091250215
:105090008017910730F69F2D9270992EF1FC51C028
:1050A00080912C07882361F0C80101979F938F930B
:1050B000BF92AF920E94F54F0F900F900F900F90FC
:1050C000E11002C00E941A15C80103970E944326EE
:1050D000F82E0E942B0B849A8C980E94FB148091CE
:1050E0000201806480930201809102018F7B809392
:1050F00002018C9A8498AFEFFA1209C01F930F93A4
:105100008FEA90E19F938F930E94F54F1DCF80917E
:105110002C0781110FC0912C81E0481A51086108B9
:1051200071089FEF491659066906790609F410CFF0
:10513000E92CC9CEDF92CF920E94F54F0F900F90CD
:10514000EBCFB1E0EB12E7CF0E94FB1499249394CC
:10515000E3CFCF93DF930F92CDB7DEB78983FB0107
:1051600030E020E041E050E0BE016F5F7F4F84857A
:1051700095850E94612421E030E0892B11F430E014
:1051800020E088279927821B930B0F90DF91CF9106
:1051900008954F925F926F927F92AF92BF92CF929B
:1051A000DF92EF92FF920F931F93CF93DF93EC0167
:1051B0005B014E845F846888798820E2420E511C2E
:1051C000611C711C8E899F89A88DB98D0097A105DE
:1051D000B105D9F141145104E0E26E067104A8F55D
:1051E00008811981B301A201517066277727452BE9
:1051F000462B472B09F0A6C00196A11DB11D8E8B31
:105200009F8BA88FB98F4A895B896C897D894115ED
:10521000510561057105E1F4D80117968D919C91B6
:10522000B0E0A0E0B301A20135E07695679557950F
:1052300047953A95D1F7481759076A077B0708F44D
:1052400081C01E8A1F8A188E198E84E090E025C0C6
:10525000F801818592850197B0E0A0E073016201B9
:1052600029E0F694E794D794C7942A95D1F78C2136
:105270009D21AE21BF21892B8A2B8B2B09F062C087
:10528000C8010E9445196B017C01F2E0CF16D104E0
:10529000E104F10488F482E090E0DF91CF911F9166
:1052A0000F91FF90EF90DF90CF90BF90AF907F90E5
:1052B0006F905F904F9008952FEFC216D206E206CE
:1052C000F20619F481E090E0E8CFF8018789908D2B
:1052D000A18DB28DC816D906EA06FB0630F1AB28BF
:1052E00009F4AFCF4A895B896C897D89CE010E9420
:1052F00060216B017C0187E090E0C114D104E104DE
:10530000F10459F2F1E0CF16D104E104F10419F2ED
:105310002FEFC216D206E206F206A1F2B701A601ED
:10532000C8010E943F18892B69F6CA8ADB8AEC8A79
:10533000FD8AB701A601C8010E9456136E8B7F8BB0
:10534000888F998F4E865F86688A798AC801C3964E
:10535000A1E05A22840D951D9B8F8A8F90E080E0FA
:105360009CCF0F931F93CF93DF93EC01088119819A
:1053700024E030E04E895F89688D798D41155105B3
:105380006105710521F421153105C1F027C0C8015F
:105390000E9407199C01892B09F5EA8DFB8D9081EC
:1053A000992309F183858F738C83953E79F09E3222
:1053B00069F08F3059F08F71883041F030E020E093
:1053C000C901DF91CF911F910F91089570E060E0C6
:1053D000CE010E94C9289C01892B61F21E8A1F8A76
:1053E000188E198EEDCF24E030E0F8CFEF92FF92C7
:1053F0000F931F93CF93DF930F920F92CDB7DEB72A
:105400008C017B01BE016F5F7F4F0E9432129C01B5
:10541000892BA9F4C8010E94B1299C018B7F892B9B
:1054200071F4B701C8010E94CE1370E060E0C801BA
:105430000E94C9289C01049711F430E020E0C901C2
:105440000F900F90DF91CF911F910F91FF90EF90F0
:105450000895CF92DF92EF92FF920F931F93CF9315
:10546000DF937C01EB016B0189E0C80ED11CBE010A
:10547000C7010E94F6298C01892B79F4898588233C
:1054800061F030E020E050E040E0B601F70180A597
:1054900091A50E94B012892B51F3C801DF91CF91E1
:1054A0001F910F91FF90EF90DF90CF9008953F9262
:1054B0004F925F926F927F928F929F92AF92BF9224
:1054C000CF92DF92EF92FF920F931F93CF93DF93D0
:1054D000EC018B01E880F980DB018C918F3211F0B7
:1054E0008C3579F498018901D9018C912F5F3F4F58
:1054F0008F32C9F38C35B9F31E821F821886198644
:1055000009C0F70183899489A589B6898E839F8311
:10551000A887B987F8018081803208F447C06E01FE
:10552000FCE1CF0ED11C2E0187E2480E511C30E267
:10553000332E370193E3690E711CC601FC010196FD
:10554000308248165906D1F7D8018C918E3209F471
:1055500046C0580190E080E030E020E068E070E074
:105560002F5F3F4FD5014D915D01542F413278F0AF
:105570004F3219F04C3509F086C0F801E20FF31FE5
:1055800050815F3209F47CC05C3509F479C0020FA8
:10559000131F892B09F4E3C08C8D853E11F485E03F
:1055A0008C8F80E0413268F584E02BC080E88FA3C7
:1055B00040E050E0BA01CE01DF91CF911F910F91F1
:1055C000FF90EF90DF90CF90BF90AF909F908F9023
:1055D0007F906F905F904F903F900C94141A8C8F37
:1055E000F80181818E3209F03FC08D8F82818E3229
:1055F00009F4B5C023E030E08F32C9F5020F131F64
:1056000080E28FA3A880B98040E050E0BA01CE01CB
:105610000E94141A4C01892B09F062C04E895F89DF
:10562000688D798DC5010E9407194C01892B09F0FD
:1056300057C0EA8DFB8D8081882309F44EC0838595
:105640008F738C83838583FD09C04BE050E0B601E6
:10565000CF010E949713892B09F442C070E060E0EB
:10566000CE010E94C928D6CF22E030E0C5CF8C35CC
:1056700029F2813208F073C0020F131F84E2C1CFF8
:105680002F5F3F4F7ACF4E3209F46DC086179707D0
:1056900008F065C047FF06C05F77E52FF0E0E25CE9
:1056A000FC4F5081E52FF0E0ACE1B4E04D91442394
:1056B00049F0842E440F9908E815F905B9F7EF2B46
:1056C00009F04DC04FE9450F4A3108F45052D60158
:1056D000A80FB91F5C93019643CF24E0822E912C32
:1056E0008FA18114910441F1B4E08B16910459F417
:1056F000982F947085FF1AC0992309F41ECF80E873
:105700008FA3912C812CC401DF91CF911F910F9118
:10571000FF90EF90DF90CF90BF90AF909F908F90D1
:105720007F906F905F904F903F9008959111EBCFD5
:1057300085E0882E912CE7CF82FDE5CF8C8184FF18
:10574000F7CF6E857F857170660D771DF7018081BB
:105750000E940D126E837F8388879987EECE96E034
:10576000892E912CD0CF6B307105C9F388E090E081
:105770006BE070E0F5CEEF92FF920F931F93CF9303
:10578000DF93CDB7DEB7AC970FB6F894DEBF0FBE90
:10579000CDBF9CA78BA77B0140E0BE016F5F7F4F11
:1057A000CE018B960E947A1D8C01892BA1F46BA5EA
:1057B0007CA5CE0101960E94572A8C01892B59F4B1
:1057C00088A587FD16C0E114F10429F0B701CE01C8
:1057D00001960E94CE13C801AC960FB6F894DEBFB6
:1057E0000FBECDBFDF91CF911F910F91FF90EF9032
:1057F000089506E010E0EFCF0F931F93CF93DF9350
:1058000000D00F92CDB7DEB78C017C836B8340E074
:10581000BE016F5F7F4FCE0103960E947A1D9C01EF
:10582000892BB1F489819A81D8018D939C936B81E6
:105830007C81C8010E94572A9C010097C1F5F8019C
:1058400087A187FD15C0848184FD06C025E030E076
:10585000F8011182108221C0628D738DE981FA8175
:1058600080810E940D12F80166837783808791877B
:10587000E981FA8185819681D80113969C938E9354
:10588000129740E050E0BA01C8010E94141A9C012E
:1058900084309105D9F2892BD9F6C9010F900F9068
:1058A0000F900F90DF91CF911F910F910895049762
:1058B00069F2CECF0F931F93CF93DF93EC018B014F
:1058C000BA0139A728A70E94FC2B009741F4B80120
:1058D000CE01DF91CF911F910F910C94292ADF9176
:1058E000CF911F910F9108950F931F93CF93DF9343
:1058F000CDB7DEB7AE970FB6F894DEBF0FBECDBF03
:10590000FB0102979CF487EA95E09F938F930E9496
:10591000F54F0F900F90AE960FB6F894DEBF0FBE06
:10592000CDBFDF91CF911F910F9108958281938117
:105930009EA78DA740E0BE01655D7F4FCE018D968D
:105940000E947A1DAC01892B01F58BA59CA59A8339
:1059500089836DA57EA5CE0101960E94572AAC01D0
:105960000097A1F588A587FF0BC0EBA5FCA58F814B
:105970009885A985BA85838B948BA58BB68BCBCF65
:105980008D8184FD15C045E050E070E060E084E466
:105990009EE00E94CA0C9F938F9389E895E09F93A5
:1059A0008F930E94F54F0F900F900F900F90B3CFF1
:1059B0000BA51CA56B8D7C8DD8018C910E940D12BE
:1059C000F801638B748B858B968BA5CF0497E9F6D2
:1059D000DACFEF92FF920F931F93CF93DF938C0157
:1059E000DC01ED90FC9040E050E0BA010E94141AF6
:1059F000EC01892B09F048C0F80146895789608D70
:105A0000718DC7010E940719EC01892BE9F5D801B6
:105A10005A96ED91FC918081853E71F5F801468999
:105A20005789608D718DC7010E940719EC01892B80
:105A3000D9F4D8015A968D919C919C01205E3F4FDC
:105A4000FC010196108282179307D1F7B801645EBA
:105A50007F4F4BE050E0F801828D938D0E9425121C
:105A600081E0D70113968C93CE01DF91CF911F91E6
:105A70000F91FF90EF900895882381F261E070E02C
:105A8000C8010E94C928B4CFC430D10569F7C7E066
:105A9000D0E0EACF9F92AF92BF92CF92DF92EF9287
:105AA000FF920F931F93CF93DF93CDB7DEB7CA5703
:105AB000D1090FB6F894DEBF0FBECDBFF82EE92E88
:105AC000B62EA72EEA968FAFEA97EB969FAFEB978D
:105AD000E8966FAFE897E9967FAFE997CE018958CE
