:100000000C94CB0A0C94EC0A0C94EC0A0C94EC0AB9
:100010000C94EC0A0C94EC0A0C94EC0A0C94EC0A88
:100020000C94EC0A0C94EC0A0C94EC0A0C94EC0A78
:100030000C94EC0A0C94EC0A0C94EC0A0C94EC0A68
:100040000C94EC0A0C94EC0A0C94EC0A0C94EC0A58
:100050000C94EC0A0C949A4B0C94EC0A0C94EC0A59
:100060000C94EC0A0C94714B0C941F4B0C94EC0AFE
:100070000C94EC0A0C94EC0A0C94EC0A0C94EC0A28
:100080000C94EC0A0C94EC0A0C94EC0A0C94EC0A18
:100090000C94484B0C94F64A0C94EC0A0C94EC0A21
:1000A0000C94EC0A0C94EC0A0C94EC0A0C94EC0AF8
:1000B0000C94EC0A0C94EC0A0C94EC0A0C94EC0AE8
:1000C0000C94EC0A0C94EC0A0C94EC0A0C94EC0AD8
:1000D0000C94EC0A0C94EC0A0C94EC0A0C94EC0AC8
:1000E0000C94EC0A0C9420440C9400460C94A0410F
:1000F0000C9459160C9432280C9455490C942D49A3
:100100000C94DA410C9465420C94A0380C942E3D6A
:100110000C94CC160C949F2E0C94D1440C94AF42AA
:100120000C9401170C94C2140C94EC160C945841C6
:100130000C94733D0C94AB3F0C949A360C94553F41
:100140000C944D3D0C94BB160C94DE480C94DC0CC6
:100150000C9422160C94B2410C94E00B0C949D1656
:100160000C94CE480C94633F0C9431400C94F21CD8
:100170000C94C52C0C948F320C94C7160C94D11689
:100180000C94123C0C94F3160C94993D0C94A243DD
:100190000C94EF2B0C9407410C94940B0C94C21606
:1001A0000C94000D0C94E5160C948E160C9490167D
:1001B0000C94FA160C94D6160C944C150C94C7415A
:1001C0000C943A430C94BD160C945D326364696ED2
:1001D0006F70737578585B000A0020776974682027
:1001E0002564206572726F7273006C6F6164656460
:1001F00020256420627974657320746F74616C20AB
:1002000066726F6D20253034782D25303478006C7F
:100210006F6164696E672066726F6D2025730A00D6
:100220006C6F6164696E672066726F6D20636F6EBC
:10023000736F6C653B20656E74657220626C616ED5
:100240006B206C696E6520746F2063616E63656CF2
:100250000A006572726F722077726974696E672026
:1002600066696C65006572726F7220777269746975
:100270006E672066696C650075736167653A207307
:10028000617665686578203C73746172743E203CC9
:10029000656E643E205B66696C655D0A006572721E
:1002A0006F72207365656B696E672066696C653A6D
:1002B0002025530A00746D736C62696E00666C6170
:1002C00073680075736167653A202573203C737409
:1002D00061727420616464723E203C66696C656E74
:1002E000616D653E205B6F66667365745D205B6C57
:1002F000656E6774685D0A0075736167653A20739F
:1003000061766562696E203C73746172743E203C54
:10031000656E643E205B66696C655D0A00776169A5
:1003200074696E6720666F72207472616E736665A1
:100330007220746F20626567696E3B20707265730E
:1003400073205E5820747769636520746F20636141
:100350006E63656C0A0075736167653A20257320CA
:100360003C66696C653E0A00626567696E6E696E1F
:1003700067207472616E736D697373696F6E3B2071
:100380007072657373205E5820747769636520749A
:100390006F2063616E63656C0A0075736167653A0F
:1003A0002064697361736D203C73746172743E20C4
:1003B0005B656E645D0A000A002E00256300200064
:1003C00020002530325820002530356C5820200080
:1003D0000A002558002000200041444452202020DB
:1003E0000075736167653A202573205B73746172D1
:1003F000745D205B656E645D0A0048414C54205278
:100400004551554553542061742024253034780AD1
:10041000004B6579626F6172642048414C542061E1
:10042000742024253034780A0063757272656E7406
:100430002073706565642069732025752E2530331F
:1004400075204D487A2028636C6B6469763D25647D
:10045000290A0075736167653A20636C6B6469767D
:10046000203C646976696465723E3B206D696E6903
:100470006D756D20646976696465722069732032D8
:100480000A0063757272656E742073637265656EBF
:100490002073697A652069732025647825640A00D1
:1004A00075736167653A2073637265656E203C778A
:1004B000696474683E203C6865696768743E0A0038
:1004C0006F6666006572726F723A20756E6B6E6F42
:1004D000776E20747970650A006F6666000925736F
:1004E000206F666620746F2064697361626C65209A
:1004F000616C6C0A00092573203C747970653E209C
:100500006F666620746F2064697361626C65207425
:100510007970650A000A75736167653A0A0925737F
:10052000203C747970653E205B73746172745D2049
:100530005B656E645D0A0009255309253034782D0A
:10054000253034780A000925530964697361626CA7
:1005500065640A006D656D7264006D656D7772008B
:100560006F7066657463680062757300646D610026
:100570002573207374617475733A0A006272656141
:100580006B006F6666006F6E006572726F7220633B
:1005900068616E67696E67206469726563746F7203
:1005A000793A2025530A0075736167653A206364C0
:1005B000203C6469726563746F72793E0A006572EB
:1005C000726F72206D616B696E672064697265631A
:1005D000746F72792025733A2025530A0075736170
:1005E00067653A206D6B646972203C6469723E0AEB
:1005F0000066696C65206E6F7420666F756E640AA4
:10060000002575206974656D2873290A00252D3130
:100610003373000A006572726F72207265616469DB
:100620006E67206469726563746F72793A2025532E
:100630000A006572726F72206F70656E696E672056
:100640006469726563746F72793A2025530A007584
:10065000736167653A202573203C7372633E2E2ECA
:100660002E203C646573743E0A0075736167653AB9
:10067000202573203C7372633E2E2E2E203C646531
:1006800073743E0A0075736167653A202573203CD8
:1006900066696C653E2E2E2E0A00646573630061E8
:1006A00073630075736167653A2066696C6C203C02
:1006B00073746172743E203C656E643E203C7661CA
:1006C0006C75653E0A002530356C583D2530325832
:1006D000203A2000656E7465722076616C69642032
:1006E00068657820746F207265706C6163653B206B
:1006F000626C616E6B20746F206C6561766520752D
:100700006E6368616E6765643B2027782720746F8D
:1007100020657869742E0A0075736167653A2070E8
:100720006F6B65203C73746172743E205B76616C04
:1007300075652E2E2E5D0A0075617274310075612B
:1007400072743000726561640075736167653A2088
:10075000617474616368205B307C315D205B72651D
:1007600061647C77726974655D205B756172743059
:100770007C75617274317C66696C656E616D655DF6
:100780000A00554152542025753A207265717565ED
:10079000737465643A20256C752C206163747561EF
:1007A0006C3A20256C750A0075736167653A2062A2
:1007B000617564203C756172743E203C62617564B1
:1007C0003E0A000A00282563290A00285E256329BD
:1007D0000A0068616C74206B65792069732025308C
:1007E0003278200068616C74206B65792069732011
:1007F00064697361626C65640A006F6666001B5B06
:10080000306D1B5B3B481B5B324A002563007573F0
:100810006167653A202573203C68657820636F64C2
:10082000653E2E2E2E0A0025733E257300617574D9
:100830006F657865632E7736350075736167653A45
:1008400020646F203C66696C656E616D653E0A00D0
:1008500025530925530A000061747461636820768A
:1008600069727475616C207561727400636F6E6675
:100870006967757265205541525420626175642024
:100880007261746500646973706C6179206C6F7754
:100890002D6C6576656C2062757320737461747558
:1008A000730073657420627265616B706F696E743A
:1008B0007300006368616E676520646972656374C4
:1008C0006F727900007365742057363530322063BB
:1008D0006C6F636B206469766964657200636C6534
:1008E00061722073637265656E00636F7079206159
:1008F0002066696C652028616C69617320637029CA
:100900000000646562756720636F64652061742010
:10091000616464726573732028616C69617320631C
:100920002900657261736520612066696C65202805
:10093000616C696173206572612C20726D2900738E
:10094000686F7773206469726563746F7279206C65
:10095000697374696E6720696E206C6F6E672066BC
:100960006F726D617400646973617373656D626C3D
:100970006573206D656D6F7279206C6F636174694A
:100980006F6E00656E61626C6520646D61206465E8
:1009900062756700657865637574652061206261C2
:1009A0007463682066696C650064756D70206D65A0
:1009B0006D6F727920696E2068657820616E6420A1
:1009C00061736369692028616C696173206429001F
:1009D000000066696C6C206D656D6F7279207769B7
:1009E0007468206279746500656E61626C65206868
:1009F000616C7420766961206B6579626F617264E5
:100A00002073686F7274637574006C69737420610D
:100A10007661696C61626C6520636F6D6D616E6497
:100A200073006C6F61642062696E6172792066691F
:100A30006C6520746F206D656D6F7279006C6F61ED
:100A40006420696E74656C206865782066696C65E1
:100A500020746F206D656D6F72790073686F7773A6
:100A6000206469726563746F7279206C697374694C
:100A70006E6720696E207769646520666F726D61AC
:100A8000740000637265617465206120737562642F
:100A900069726563746F72792028616C6961732073
:100AA0006D6429000000706F6B652076616C756560
:100AB0007320696E746F206D656D6F7279000072BE
:100AC000656E616D652F6D6F766520612066696C5E
:100AD00065206F72206469726563746F7279202873
:100AE000616C696173206D7629000000657865632B
:100AF00075746520636F646520617420616464723D
:100B00006573730000736176652062696E61727946
:100B10002066696C652066726F6D206D656D6F7201
:100B200079007361766520696E74656C20686578FC
:100B30002066696C652066726F6D206D656D6F72E1
:100B400079007365742073637265656E2073697ACA
:100B5000650000737465702070726F636573736FE6
:100B600072204E206379636C65732028616C696123
:100B70007320732900736574207761746368207033
:100B80006F696E74730072656365697665206120B4
:100B900066696C652076696120786D6F64656D00AB
:100BA00073656E6420612066696C652076696120DA
:100BB000786D6F64656D00617661696C61626C650A
:100BC00020636F6D6D616E64733A0A00633FA243E8
:100BD000AB3FC214D144B241EF2BEF2B58414C151F
:100BE000733D733DB2412E3D993D65422D49CE483E
:100BF000554955492E3D20443A43DE4800469A3631
:100C0000993D8F328F324D3D4D3D31402E3D4D3D12
:100C10002E3D2E3DDA41C741553FAF420741A0412D
:100C2000A041D144123CA0386173636969006174CA
:100C3000746163680062617564006275730062725A
:100C400065616B00630063640063686469720063DC
:100C50006C6B64697600636C7300636F707900631A
:100C6000700064656275670064656C006469720099
:100C700064697361736D00646D615F64656275675B
:100C800000646F0064756D700064006572610066D9
:100C9000696C6C0068616C746B65790068656C7078
:100CA000006C6F616462696E006C6F616468657886
:100CB000006C73006D64006D6B646972006D6F761B
:100CC00065006D7600706F6B650072640072656E12
:100CD00000726D00726D6469720072756E007265EB
:100CE000736574007361766562696E007361766521
:100CF0006865780073637265656E00730073746570
:100D00007000776174636800786D727800786D7434
:100D10007800363530326374726C3A25733E000ABF
:100D20002020205F5F20205F5F5F5F2020205F5FCB
:100D30005F205F5F5F5F2020202020205F20202039
:100D400020202020205F200A20202F202F5F7C20C1
:100D50005F5F5F7C202F205F205C5F5F5F205C20F7
:100D60005F5F5F7C207C5F205F205F5F7C207C0A70
:100D7000207C20275F205C5F5F5F205C7C207C20E4
:100D80007C207C5F5F29202F205F5F7C205F5F7C61
:100D900020275F5F7C207C0A207C20285F29207C24
:100DA0005F5F29207C207C5F7C202F205F5F2F20CD
:100DB000285F5F7C207C5F7C207C20207C207C0A5C
:100DC00020205C5F5F5F2F5F5F5F5F2F205C5F5F56
:100DD0005F2F5F5F5F5F5F5C5F5F5F7C5C5F5F7C1F
:100DE0005F7C20207C5F7C0A206279206D6F7265B9
:100DF0006361745F6C6162200A20626173656420C4
:100E00006F6E207A38306374726C2062794A2E4299
:100E10002E204C616E6773746F6E200A0A747970AD
:100E2000652068656C7020746F206C697374206134
:100E30007661696C61626C6520636F6D6D616E6473
:100E4000730A006572726F72206D6F756E74696ED1
:100E5000672064726976653A2025530A00657272CC
:100E60006F72206F70656E696E6720272573273A51
:100E70002025530A006572726F7220636C6F73696C
:100E80006E672066696C653A2025530A00657272A8
:100E90006F722072656164696E672066696C653A7D
:100EA0002025530A006572726F7220777269746927
:100EB0006E672066696C653A2025530A0065727278
:100EC0006F722064656C6574696E672027257327CF
:100ED0003A2025530A006572726F722072656E6146
:100EE0006D696E67202725732720746F202725736F
:100EF000273A2025530A006572726F7220636F7063
:100F000079696E67202725732720746F2027257342
:100F1000273A2025530A006572726F7220656E753C
:100F20006D65726174696E672066696C65733A20DD
:100F300025530A004F4B006469736B206572726F12
:100F40007200696E7465726E616C206572726F7288
:100F5000006472697665206E6F74207265616479D1
:100F60000066696C65206E6F7420666F756E640034
:100F700070617468206E6F7420666F756E640069AE
:100F80006E76616C69642070617468206E616D6555
:100F9000006163636573732064656E6965640066F0
:100FA000696C6520616C726561647920657869732C
:100FB000747300696E76616C6964206F626A656340
:100FC000740077726974652070726F7465637465FC
:100FD0006400696E76616C6964206472697665206C
:100FE0006E756D626572006472697665206E6F74ED
:100FF000206D6F756E74656400696E76616C6964EE
:101000002066696C6573797374656D006D6B6673CA
:101010002061626F727465640074696D656F7574C8
:101020000066696C65206C6F636B6564006F757436
:10103000206F66206D656D6F727900746F6F206D23
:10104000616E79206F70656E2066696C65730069EA
:101050006E76616C696420706172616D6574657231
:1010600000002F002F0048414C54207265717565B7
:1010700073742074696D6564206F75740A006275FD
:10108000732072656C656173652074696D65642099
:101090006F75740A000925303478202530327820A5
:1010A0002563202020202573202573202020202543
:1010B0007320257320257320257320257320257325
:1010C0002025732025730A00256420256F00657292
:1010D000726F723A202553206F6E206C696E652006
:1010E00025640A006F6B00696E76616C696420721A
:1010F00065636F726420666F726D617400696E73F0
:10110000756666696369656E7420627974657300DB
:10111000636865636B73756D206D69736D6174636E
:101120006800756E737570706F7274656420726597
:10113000636F726420747970650025730A002573EB
:101140000A00646D6164617420253032780A006D94
:10115000626164727320253034780A00646D6163C3
:101160006D6420253032780A00646D616E6F202531
:101170003032780A00646D6172715F61646472205C
:10118000253034780A00646D617020253034780A87
:1011900000444D412066696E69736865640A0048C1
:1011A000414C5420524551554553542061742024DC
:1011B000253034780A0025303478205741492824D6
:1011C00043422920726571756573740A0062726505
:1011D000616B206174202425303478203A6D656D70
:1011E00077650A00627265616B2061742024253086
:1011F0003478203A6D656D72640A00627265616BC5
:10120000206174202425303478203A6F70636F6435
:10121000652066657463680A0020282425303258EA
:10122000253032582C5829002028242530325825C2
:101230003032582900202425303258253032582C9D
:101240005900202425303258253032582C5800209F
:1012500024253032582530325800202824253032B9
:10126000582C592900202824253032582C58290080
:101270002028242530325829002024253032582CAB
:1012800059002024253032582C5800202425303293
:10129000580020232425303258002024253034786B
:1012A000004100414443414E4441534C424252426A
:1012B0004253424343424353424551424954424DB3
:1012C00049424E4542504C42524142524B42564393
:1012D000425653434C43434C44434C49434C56437E
:1012E0004D50435058435059444543444558444554
:1012F00059454F52494E43494E58494E594A4D500F
:101300004A53524C44414C44584C44594C53524E0D
:101310004F504F5241504841504850504858504803
:1013200059504C41504C50504C58504C59524D42D1
:10133000524F4C524F5252544952545353424353BA
:101340004543534544534549534D425354415354E7
:101350005053545853545953545A54415854415962
:10136000545242545342545358545841545853546D
:1013700059415741492D2D2D000D25464640250246
:101380002E27250246402502030B2525463F250230
:101390002E10251B463F2502031F01464608012F3C
:1013A0002E2B012F4608012F030901014608012FAA
:1013B0002E3401174608012F03311A4646461A23D8
:1013C0002E261A23461E1A23030E1A1A46461A23DD
:1013D0002E121A2946461A2303320046463C003094
:1013E0002E2A0030461E0030030F0000463C00301D
:1013F0002E36002D461E0030030C3846463B383A48
:1014000037190842463B383A04053838463B383AE3
:1014100037443843463C383C0422202146222021D0
:10142000373E203D4622202104062020462220214E
:10143000371320414622202104161446461614175D
:10144000371D141845161417040A141446461417A9
:101450003711142839461417041533464615331B23
:10146000371C33244615331B040733334646331BDE
:101470003735332C4646331B04000A0000070707A4
:1014800004000601000E0E0E05030B0C00070808F1
:1014900004001001000E0F0F050E0A0000070707D9
:1014A00004000601000E0E0E05030B0C00080808D0
:1014B00004001001000F0F0F05000A0000070707C6
:1014C00004000601000E0E0E05030B0C00070808B1
:1014D00004001000000E0F0F05000A0000070707A8
:1014E0000400060100110E0E05030B0C000808088D
:1014F0000400100000120F0F05030A000007070781
:1015000004000600000E0E0E05030B0C000808096F
:1015100004001000000E0F0F05060A06000707075B
:1015200004000600000E0E0E05030B0C000808094F
:1015300004001000000F0F1005060A00000707073F
:1015400004000600000E0E0E05030B0C0007080831
:1015500004001000000E0F0F05060A000007070721
:1015600004000600000E0E0E05030B0C0007080811
:1015700004001000000E0F0F052025730A00200044
:101580002E00256300202020002530327820002501
:1015900030356C78200011241FBECFEFD1E2DEBFC2
:1015A000CDBF00E00CBF14E0A0E0B2E0E2EFF9EA4A
:1015B00000E00BBF02C007900D92A436B107D9F727
:1015C00028E0A4E6B4E001C01D92A23BB207E1F717
:1015D0000E94BF4B0C94E5540C940000CF93DF9312
:1015E000282F30E096E4899FF0011124E25CF84F47
:1015F00044815581220F331F41110AC02A533C4FA9
:10160000D901ED91FC9188E98083DF91CF91089514
:101610004150842F90E09583848382819381992720
:10162000D901A653BC4F0D90BC91A02DEF01C80F5E
:10163000D91F5E815C9301968F7399279383828370
:101640004111E3CFDBCF90E0FC01EE0FFF1FE6532B
:10165000FC4F0190F081E02D408126E4289FF001AD
:10166000299FF00D1124E653F84F24813581622F14
:1016700050913E02552329F0541303C051E050937A
:101680003D076034C8F42F5F30E056E4589FF00106
:10169000599FF00D1124E653F84F35832483808140
:1016A00091819927DF01A80FB91F16964C930196D7
:1016B0008F739927918380830895CF93DF93482F69
:1016C000417050E086E4849FD001859FB00D1124C5
:1016D000A25CB84FFD0134968081918180349105E0
:1016E000D8F72D913C9111973327ED01C20FD31FED
:1016F0006E83F89480819181019691838083440F59
:10170000551FFA01EA53FC4F0190F081E02D88EB60
:10171000808378942F5F3F4F2F73332711963C932C
:101720002E93DF91CF910895CF93C82F8A3019F46B
:101730008DE00E94940B6C2F80E00E945D0B90E086
:1017400080E0CF9108958091420790914307892BC3
:10175000D1F78091880790918907892BA1F7809113
:10176000C00085FFFCCF8091C80085FFFCCF0895A5
:10177000282F217030E086E4829FF001839FF00DD6
:101780001124E653F84F84819581892BB9F0228189
:1017900033813327DF01A20FB31F16968C91F89483
:1017A00044815581415051095583448378942F5F7A
:1017B0003F4F2F73332733832283089580E00895AA
:1017C000EF92FF920F931F93CF93DF937C01809151
:1017D000A6089091A708892BC1F4C6E5D8E08091AE
:1017E000CE079091CF07892BD1F380E00E94B80BF0
:1017F0008D3021F58AE08883B7010E94940B86E53D
:1018000098E09093A7088093A608E091A608F0912D
:10181000A708CF0101969093A7088093A60880811E
:101820008A3021F41092A7081092A60890E0DF9168
:10183000CF911F910F91FF90EF9008958A30D1F2D0
:10184000893079F090EE980F9F3510F0803A80F053
:1018500098E0C53AD90739F467E080E00E945D0B53
:10186000BECF80E2F5CF8993B7010E94940BB7CF2A
:10187000823109F451C0D0F4833009F45EC088305D
:1018800009F0ADCFE8E0C635DE0709F008F4A7CFD0
:1018900068E080E00E945D0B60E280E00E945D0BEA
:1018A00068E080E00E945D0B219799CF8731C9F0F5
:1018B0008F3741F3853109F092CFF8E0C635DF0765
:1018C00009F008F48CCF68E080E00E945D0B60E2D4
:1018D00080E00E945D0B68E080E00E945D0B219734
:1018E000ECCF8E01E80188E00635180709F008F40E
:1018F00076CFF80182918F01803209F470CF68E0D1
:1019000080E00E945D0B60E280E00E945D0B68E079
:1019100080E00E945D0BE6CF6DE080E00E945D0BF1
:1019200006E518E00C171D0708F059CFB701F801BC
:1019300081918F010E94940BF5CF8FEF9FEF77CFAE
:10194000CF93DF93282F217030E0C901880F991FB2
:10195000FC01EA53FC4FC081D181188246E4429FCA
:10196000F001439FF00D1124DF01A653B84F1596E7
:101970001C921E92149713961C921E921297119607
:101980001C921E92E25CF84F15821482138212821E
:1019900011821082FC01EE53FC4F0190F081E02D8A
:1019A000708382549C4FDC01ED91FC91608388E947
:1019B0008883DF91CF91089510920A0190910201DE
:1019C0009F7B90930201A19AA29891E0980F82B90F
:1019D0008091020180648093020100000000FA01FE
:1019E000809109018193809102018F7B8093020194
:1019F000691720F0892FAF019111E7CFA29A0895BE
:101A00009FEF90930A01909102019F7B90930201B6
:101A1000A198A2989091020190649093020191E0A4
:101A2000980F82B9FA01819180930B018091020194
:101A30008F7B80930201691720F0892FAF019111EC
:101A4000E9CFA29A10920A0108950F931F9300E024
:101A500010E09801041715072607370719F41F919E
:101A60000F9108950196FC013197E491E111FACFAD
:101A70000F5F1F4F2F4F3F4FEDCF8EBD0DB407FEB1
:101A8000FDCF8EB508959C013E5FFC0140814EBDA7
:101A90000DB407FEFDCFFC0141814EBD0DB407FE24
:101AA000FDCF02968217930781F78FEF0E943D0DBD
:101AB0008FEF0E943D0D8FEF0E943D0D282F2F715B
:101AC00081E090E0253011F090E080E008950F93E0
:101AD0001F93CF93DF938C01EB0184E18093A206E7
:101AE0008FEF0E943D0D8F3F39F48091A206811146
:101AF000F7CF90E080E01CC08E3FD9F7F8018FEF60
:101B00008EBD0DB407FEFDCF9EB590838EBD0DB486
:101B100007FEFDCF9EB5918322973296209781F7DD
:101B20008FEF0E943D0D8FEF0E943D0D81E090E010
:101B3000DF91CF911F910F910895289A8FEF0C9408
:101B40003D0D6AE070E00E94404C6093A1068FEF6B
:101B50000E943D0D282F8F3F21F08091A106811119
:101B6000F6CF81E090E02F3F11F090E080E0089503
:101B7000CF93DF9328988FEF0E943D0D84EF91E083
:101B80000E94A10DEC01892B31F40E949D0DCE0124
:101B9000DF91CF910895C1E0D0E0F9CFFF920F938C
:101BA0001F93CF93DF93C82FD42F152F062FF72E17
:101BB00087FF09C040E050E0BA0187E30E94CE0DE4
:101BC000823048F5CF77CC3061F58C2F80640E944D
:101BD0003D0D8F2D0E943D0D802F0E943D0D812FC8
:101BE0000E943D0D8D2F0E943D0D85E9CC2321F0F3
:101BF00087E8C83009F081E00E943D0DCC3019F42F
:101C00008FEF0E943D0DCAE08FEF0E943D0D87FFD0
:101C100002C0C150C9F7DF91CF911F910F91FF9082
:101C200008950E949D0D0E94B80D892B71F68FEFCB
:101C3000F2CFEF92FF921F93CF93DF937C01E901E4
:101C40008091A30683FD07C089E0440F551F661FDE
:101C5000771F8A95D1F711E1C230D10508F012E162
:101C6000812F0E94CE0D811113C060E072E0C70188
:101C70000E94670D892B21F08EEFF81A2197A9F7A2
:101C8000123131F440E050E0BA018CE00E94CE0DF8
:101C90000E949D0D81E090E0CD2B11F490E080E05A
:101CA000DF91CF911F91FF90EF900895FF920F93D6
:101CB0001F93CF93DF93CDB7DEB760970FB6F8943D
:101CC000DEBF0FBECDBF8B019091110290FD26C1EA
:101CD000853050F4813089F18823C9F0833009F4CC
:101CE0009DC004E010E01CC0823309F411C18333AD
:101CF000C1F740E050E0BA0189E00E94CE0D8111A9
:101D000024C060E170E0C8010E94670D02C00E941B
:101D1000B80D01E010E0892B09F000E00E949D0D54
:101D2000C80160960FB6F894DEBF0FBECDBFDF913D
:101D3000CF911F910F91FF90089540E050E0BA01BC
:101D400089E00E94CE0D882311F001E037C060E1E8
:101D500070E0CE0101960E94670D892BB1F3998145
:101D6000929596959695937089856A854885913068
:101D700039F5282F30E0322F2227260F311D842FEE
:101D800090E0B0E0A0E0DC01992788278827992718
:101D9000AF73BB270196A11DB11D820F931FA11D1B
:101DA000B11D2AE0880F991FAA1FBB1F2A95D1F7E2
:101DB000F80180839183A283B38300E010E0AECF6B
:101DC0008295869586958370F4E04F9FA00111243B
:101DD000840F952F911D01964F8150E0542F442779
:101DE000550F550F44275C70840F951FB0E0A0E09D
:101DF0003E813F702B85221F2227221F320F3E5F1C
:101E0000262F220F2670230F2950330B04C0880F72
:101E1000991FAA1FBB1F2A95D2F7CACFF090A3061D
:101E200040E050E0BA01F2FE21C08DE80E94CE0DE4
:101E300081118BCF8FEF0E943D0D60E170E0CE01EC
:101E400001960E94670D892B09F47FCF60E3F62E7F
:101E50008FEF0E943D0DFA94F110FACF2B85229559
:101E60002F7080E190E0A0E0B0E0D0CF89E00E9448
:101E7000CE0D81116ACF60E170E0CE0101960E9423
:101E8000670D892B09F461CF8B8590E02C85F1FEDD
:101E90001BC0880F991F8E779927221F2227221F88
:101EA00030E02F5F3F4F820F931F2E85229526959E
:101EB000269523702150330B02C0880F991F2A9555
:101EC000E2F7B0E0A0E074CFF8E02F9FA00111246A
:101ED00048715527229526952770240F352F311DDF
:101EE0002F5F3F4F95958795959587958F7199278A
:101EF0000196289FA001299F500D389F500D112455
:101F000070E060E0F801408351836283738355CFB2
:101F10008091A306FB01808300E0E4CE03E0E2CEE3
:101F2000CF92DF92EF92FF920F931F93CF93DF93A5
:101F300000D00F92CDB7DEB784B1876084B9239803
:101F400081E08DBD80E58CBD8CB58C7F8CBD8CB562
:101F50008B7F8CBD8BE987BD82E084BD95E095BD0C
:101F600080936E0078948AE08093A2068091A20606
:101F70008111FCCF8091110281FF0FC0809111026D
:101F80000F900F900F900F90DF91CF911F910F91B5
:101F9000FF90EF90DF90CF9008958CB583608CBD5B
:101FA0001AE08FEF0E943D0D1150D9F740E050E04C
:101FB000BA0180E00E94CE0D082F813009F071C077
:101FC00084E68093A2064AEA51E060E070E088E08F
:101FD0000E94CE0D813009F041C08E010F5F1F4F6E
:101FE0006E0185E0C80ED11C78018FEF0E943D0D77
:101FF000F70181937F01EC15FD05B9F78B818130E5
:1020000009F04FC08C818A3A09F04BC08091A2063A
:10201000882349F040E050E060E070E489EA0E94E3
:10202000CE0D8111F3CF8091A2068823D1F140E03B
:1020300050E0BA018AE30E94CE0D811132C08FEFC9
:102040000E943D0DF80181938F01EC15FD05B9F754
:10205000898114E086FF26C01CE024C040E050E0E7
:10206000BA0189EA0E94CE0D11E0823010F412E02C
:1020700009EA8091A206882341F040E050E0BA01CD
:10208000802F0E94CE0D8111F4CF8091A20688236B
:1020900041F040E052E060E070E080E10E94CE0D4F
:1020A000811110E01093A3060E949D0D112309F4E5
:1020B00065CF809111028E7F809311028CB58C7F49
:1020C0008CBD5CCF8A3010F4805D0895895C0895E2
:1020D0007F928F929F92AF92BF92CF92DF92EF92B8
:1020E000FF920F931F93CF93DF936C01EB018A0153
:1020F000B22E722E740E710E8AE38883822F82951F
:102100008F700E94621089838B2D8F700E946210E5
:102110008A83812F82958F700E9462108B83812F1A
:102120008F700E9462108C83C80124E09695879579
:102130002A95E1F78F700E9462108D83802F8F7037
:102140000E9462108E8380E38F83BB2069F18887B1
:1021500076016E010B2D10E05701A00EB11EF2E0CA
:10216000CF0ED11CAE14BF0411F57194872D82954A
:102170008F700E946210000F111FC00FD11F89873E
:10218000872D8F700E9462108A871B86DF91CF9106
:102190001F910F91FF90EF90DF90CF90BF90AF9085
:1021A0009F908F907F900895739481E3D0CFF70133
:1021B00081917F0182958F700E946210F601878362
:1021C000F70182914F018F700E946210F6018087A3
:1021D000F4018081780EC3CF982F80ED890F8A306B
:1021E00070F08FEB890F863018F489EC890F089511
:1021F0008FE9890F863010F489EAF8CF8FEF0895C0
:102200009C01680F791F90E080E02617370709F4DA
:102210000895F90141919F019427092E0294402DC0
:102220004F704927592F5025550F507E4527502D67
:102230005927507F5695092E000C551F9695969557
:1022400096959F7195279827842FDFCF682F80E080
:102250000C945D0BCF92DF92EF92FF920F931F933E
:10226000CF93DF93D82FC92FD62EC72E7A0189019D
:1022700090930801A901791791F06FEFF701199573
:1022800080E091E08D1B9109080F191F91E09C0FD0
:102290009C1578F090930801A8016D2D80E0F7015E
:1022A000DF91CF911F910F91FF90EF90DF90CF9032
:1022B0001994C1E0C90F90930801A8016FEF80E065
:1022C000F701199513959C2FE3CF80913807811161
:1022D0000FC08091390790913A07209136073091CD
:1022E0003707BC0161507F4F4CED5CE00E942A1122
:1022F0008091390790913A07A0913B07B0913C0734
:102300000196A11DB11D8093390790933A07A093C0
:102310003B07B0933C072091360730913707E09197
:10232000380781E08E0F8093380790913507E20FD0
:10233000F32FF11D8081E92FF0E0E35DF84F8083FA
:102340009F5F9093350708954F925F926F927F92AF
:102350008F929F92AF92BF92EF92FF920F931F9333
:102360002B0149015A01DC01CB0182279925A427C1
:10237000BB259701A801A0FD10C0B401C2011F91A7
:102380000F91FF90EF90BF90AF909F908F907F90B4
:102390006F905F904F900C942A116FEF7FEFC20106
:1023A0000E942A11970124193509A801B40190E06F
:1023B00080E0E5CFCF93DF9300D00F920F92CDB79F
:1023C000DEB72FB132B3809100016091090140B1B5
:1023D0009091060136708074382B592F5C834B83A3
:1023E0005C8170E080E090E00F900F900F900F9074
:1023F0000F90DF91CF910895E0EBF0E08081836250
:102400008083E1EBF0E0808189608083809110021D
:1024100081508093B300809110028150990B959563
:1024200087958093B400089590E020910201206484
:1024300020930201209102012F7B209302019F5FD4
:102440008913F3CF0895FB01338F228FDC018C9128
:10245000833029F4CA01AA27BB27848B958B089562
:10246000FB01428D538D70E060E0833059F4848924
:102470009589B0E0A0E0DC0199278827482B592BEB
:102480006A2B7B2BCB01BA010895460F571FFB0126
:102490002191BF01FC012193CF0164177507B9F7A2
:1024A00008950097F1F0DC01ED91FC9111973097C0
:1024B000D1F020812223D1F012962D913C9185817B
:1024C00096812817390791F4818181110FC080917D
:1024D000110280FD0BC090E080E0DB01ED93FC93E6
:1024E0000895F0E0E0E089E090E0F7CF89E090E047
:1024F000F0E0E0E0F2CFDC01ED91FC91309759F093
:10250000DF019D014D91413280F04A33D1F7419175
:102510002E173F0719F08FEF9FEF08954033D9F73B
:102520002F5F3F4FFC013183208390E080E00895CE
:102530000F931F93DC01ED91FC9111979F012F5F89
:102540003F4F2D933C93608170E090E080E08B01E1
:102550009C0101561109210931090A311105210592
:10256000310538F460527109810991091F910F9169
:1025700008956038710581059105C0F360587109AF
:1025800081099109625C7C4FFB01608170E090E001
:1025900080E0ECCF4F925F926F927F92AF92BF92AA
:1025A000CF92DF92EF92FF920F931F93CF93DF931F
:1025B00000D000D0CDB7DEB78C017E836D8359018A
:1025C0007A01E114F10451F4F8018081811128C0ED
:1025D000A114B10429F181E090E00DC0CE0105966F
:1025E0000E94981221E0E21AF108672B682B692BF0
:1025F00041F790E080E026960FB6F894DEBF0FBE5C
:10260000CDBFDF91CF911F910F91FF90EF90DF90A1
:10261000CF90BF90AF907F906F905F904F90089554
:102620001A8309838D819E819C838B83E981FA8142
:1026300080818F3311F08A3299F530E020E050E04C
:1026400040E0E981FA81CF0101969A838983608114
:102650006F3319F54F5F5F4F61816F3391F36A32CA
:1026600081F36B817C810E94CA12892B09F0B3CF60
:10267000EB81FC81C0800C2C000CDD08EE08FF080B
:10268000CE0105960E949812A114B10409F4B1CFAD
:10269000CD28CE28CF2821F6ACCF21E030E0DCCF0A
:1026A000CE0101960E9498122B013C01CE010396A7
:1026B0000E9498126B017C014C145D046E047F042F
:1026C000F9F645284628472809F0B0CF84CF0F9364
:1026D0001F93FC019A01AB012250310941095109B4
:1026E0008789908DA18DB28D0297A109B109281714
:1026F00039074A075B0778F4A185B2850E94CB545D
:1027000003A514A525A536A5600F711F821F931F71
:102710001F910F91089560E070E0CB01F9CFFC01AB
:10272000480F591FDB0181919D91891B990BE4177B
:10273000F50719F0BD010097A9F30895FC01628126
:10274000738190E080E0982F872F762F6627218174
:10275000622B982F872F762F66272081622B089572
:102760000F931F93CF93DF93EB011986FC014689EA
:102770005789608D718D452B462B472BD1F1028DEA
:10278000138DF80190E080E030E020E05EE22F5F02
:102790003F4F4191403291F0453009F445EE2930E8
:1027A000310531F4DE01A80FB91F19965C9301962B
:1027B000DE01A80FB91F19964C9301962B303105F5
:1027C00031F78C0F9D1FFC011186F80183858887E6
:1027D000C8014C960E949E13688379838A839B83E9
:1027E000F801868997899F838E83808D918D9D8343
:1027F0008C83DF91CF911F910F9108955F926F921B
:102800007F928F929F92AF92BF92CF92DF92EF9280
:10281000FF920F931F93CF93DF9300D00F920F92ED
:10282000CDB7DEB76B837C83242F952E782E44EEB4
:10283000C42E43E0D42E22FD04C03EECC32E33E070
:10284000D32E94EEE92E93E0F92E25FD04C083EDFE
:10285000E82E83E0F82E84EE93E024FD02C088ED9C
:1028600093E043EE53E092FC02C04DED53E005EEE1
:1028700013E023FD02C009EE13E0A5EEB3E027FD4F
:1028800002C0ADEEB3E0E5EFF3E021FF02C0E1EFFF
:10289000F3E064EE73E026FF02C069EF73E020FF0F
:1028A00065C025EE33E00F2EF5E0AF2EF4E0BF2E2D
:1028B000F02D91FE06C00F2EF2E0AF2EF4E0BF2EF9
:1028C000F02D96FC56C00F2EFDE08F2EF4E09F2ECB
:1028D000F02D0F2EF0EE6F2EF02D670C0F2EFEE573
:1028E0005F2EF02D561408F04BC06894662465F8EE
:1028F000DF92CF92FF92EF929F938F935F934F93CC
:102900001F930F93BF93AF93FF93EF937F936F93B7
:102910003F932F93BF92AF929F928F921F926F928D
:102920001F927F928C818F938B818F9385E990E1A9
:102930009F938F930E94124E0FB6F894DEBF0FBE86
:10294000CDBF0F900F900F900F900F90DF91CF9110
:102950001F910F91FF90EF90DF90CF90BF90AF90BD
:102960009F908F907F906F905F9008952EEF33E04F
:102970009ACF0F2EF8E08F2EF4E09F2EF02DA9CFE6
:10298000672CB6CFCF93DF9300D00F920F92CDB7C5
:10299000DEB70E94DA11942F752F862FA901692FB7
:1029A0000F900F900F900F900F90DF91CF910C949C
:1029B000FE13999811B81092070110920A01109213
:1029C0000B0112B88F9AA298819880E079990895A6
:1029D000909100019064909300018150B9F78EE7C7
:1029E00090E19F938F930E94124E0F900F90089545
:1029F000CF9379990EC08F989A9AA29A999A8FEF4D
:102A000081B98093070110920A01C1E08C2FCF9108
:102A10000895819A8998C0E0799BEDCFC150E1F784
:102A200086E690E19F938F930E94124E81980F90BB
:102A30000F90ECCFEF92FF920F931F93CF93DF9302
:102A40000F920F92CDB7DEB77A836983CE010196DC
:102A50007C0100E01DE02DEF3FEF40E050E06CEF27
:102A60007FEF80E090E00E94A4110E94D914829A26
:102A70008A9883E00E9414128A9A829887E00E94C2
:102A800014120E94F8140F900F90DF91CF911F91B4
:102A90000F91FF90EF9008958EEF97E09F938F93A3
:102AA0000E94124E0F900F9008952F923F924F92D6
:102AB0005F926F927F928F929F92AF92BF92CF92CE
:102AC000DF92EF92FF920F931F93CF93DF93CDB7D7
:102AD000DEB7C554D1400FB6F894DEBF0FBECDBFF0
:102AE0002B013C01CE5BDE4F288339834A835B8315
:102AF000C254D1404092390750923A0760923B0746
:102B000070923C0710923807CE01019690933707D8
:102B1000809336075E0121E0A20EB21E85010D5F93
:102B20001F4F89E8882E85E1982E9EE7292E95E192
:102B3000392E8091390790913A07A0913B07B091C7
:102B40003C0784159505A605B70568F0CE5BDE4FFA
:102B5000288139814A815B81C254D14028173907C5
:102B60004A075B07D0F4CB5BDE4F0FB6F894DEBFAD
:102B70000FBECDBFDF91CF911F910F91FF90EF90CE
:102B8000DF90CF90BF90AF909F908F907F906F908D
:102B90005F904F903F902F90089510923507BF930C
:102BA000AF939F938F938FE895E19F938F930E94AC
:102BB000124E0E946511E82EC82ED12CF601E7585E
:102BC000FB4E3491CF5BDE4F3883C154D1400F9020
:102BD0000F900F900F900F900F90333084F10E9460
:102BE0006511F82ECF5BDE4F4881C154D1404E3085
:102BF0003CF10E946511982FF601E758FC4EC490F5
:102C0000EC2DEE0FEC0DF0E0ED55FD4E95018491AD
:102C1000D9018D939D013196A017B107C1F7CF5B04
:102C2000DE4FE881C154D140E150E23108F0E9C003
:102C3000F0E08827E951FB4A8F4F0C94734CF12C3C
:102C400090E0DACF81EA92E19F938F931F930F93E5
:102C50000E94394E800F911F0F900F900F900F9090
:102C6000DC011C92F12C80913507F81608F4CBC0DA
:102C700094E0F92EF81AFA943FEFF312D5C0F12C34
:102C800080913507F81608F4D8C094E0F92EF81AA8
:102C9000FA94FFEFFF12F1C0BF92AF9289E795E17E
:102CA0009F938F930E94124E0F900F900F900F9052
:102CB00040CF8E2D82958770805DF50183836501FD
:102CC000F4E0CF0ED11C8F2D90E0B0E0A0E0F7FE35
:102CD00005C09A95092E000CAA0BBB0B4091390731
:102CE00050913A0760913B0770913C07840F951F04
:102CF000A61FB71FBF93AF939F938F938AE992E16B
:102D00009F938F93DF92CF920E94394E8C0D9D1D21
:102D10000FB6F894DEBF0FBECDBFA2CF6801D3CFF0
:102D20001F92FF9282E992E19F938F931F930F93DB
:102D30000E94394E800F911F17C08E2D829587708B
:102D4000805DD50113968C936501B4E0CB0ED11C48
:102D50001F92FF928BE892E19F938F93DF92CF9225
:102D60000E94394E8C0D9D1D0F900F900F900F906B
:102D70000F900F9075CF6801EBCF1F92FF9282E802
:102D800092E1D2CF1F92FF9289E792E1CDCF1F92BD
:102D9000FF9280E792E1C8CF1F92FF9285E692E111
:102DA000C3CF1F92FF928AE592E1BECF1F92FF929E
:102DB0001F929F938FE492E19F938F931F930F93A2
:102DC0000E94394E800F911FA3CF1F92FF921F9236
:102DD0009F9382E492E1F0CF1F92FF921F929F9304
:102DE00085E392E1E9CF1F92FF921F929F9388E2C1
:102DF00092E1E2CF1F92FF921F929F9389E192E1AD
:102E0000DBCFC8012DCFEF2DF0E0E35DF84F8081DF
:102E10001F928F939F928F920E94124EF3940F9065
:102E20000F900F900F901FCFE5E8F5E1FF93EF9320
:102E30000E94124E0F900F901ECFEF2DF0E0E35D39
:102E4000F84F808190EE980F9F3570F41F928F930A
:102E500042E855E15F934F930E94124E0F900F90FE
:102E60000F900F90F3940CCFA0E8B5E1BF93AF9310
:102E70000E94124E0F900F90F5CF3F922F920E941A
:102E8000124E0F900F9004CFCF92DF92EF92FF92ED
:102E90000F931F93CF93DF938C016A017B01E901AC
:102EA000209709F46EC08091110280FD6DC0809161
:102EB000110282FD6BC08091A30683FD07C099E0DB
:102EC000CC0CDD1CEE1CFF1C9A95D1F7C130D1054E
:102ED00069F5B701A60188E10E94CE0D882391F023
:102EE000C1E0D0E00E949D0D81E090E0CD2B09F47F
:102EF00080E0DF91CF911F910F91FF90EF90DF90D5
:102F0000CF90089584EF91E00E94A10D892B41F3A9
:102F10008EEF0E943D0DC8010E94430D31E020E07C
:102F2000892B09F030E0C32FD22FDCCF867031F02F
:102F3000AE0170E060E087E90E94CE0DB701A60106
:102F400089E10E94CE0D8111CDCF84EF91E00E94E6
:102F5000A10D892B59F08CEF0E943D0DC8010E94F4
:102F6000430D892B19F01E5F219779F784EF91E0CB
:102F70000E94A10D892B09F4B3CF8DEF0E943D0D66
:102F8000B1CF84E090E0B5CF83E0FCCF82E0FACF10
:102F90004F925F926F927F928F929F92AF92BF9269
:102FA000EF92FF920F931F93CF93DF93EC018B81EE
:102FB000811112C010E000E0C801DF91CF911F9194
:102FC0000F91FF90EF90BF90AF909F908F907F9068
:102FD0006F905F904F9008958981882319F001E0E8
:102FE00010E0EACF7E0183E3E80EF11C4FA558A95B
:102FF00069A97AA921E030E0C7010E9444178C0139
:10300000892B69F71B824FA558A969A97AA98B8DCD
:103010009C8DAD8DBE8D8BA09CA0ADA0BEA02A01C5
:103020003B01481859086A087B0853014201881679
:103030009906AA06BB0608F0BDCF2A81223009F006
:10304000B9CF29812111B6CF480F591F6A1F7B1FA5
:1030500021E030E0C7010E944417AECF8F929F92CB
:10306000AF92BF92EF92FF920F931F93CF93DF9394
:10307000EC014A015B010E94C8178C0181E090E0DD
:103080000115110531F5B501A401CE010E946713A8
:103090004B015C018FA698AAA9AABAAA7E0183E374
:1030A000E80EF11C9E012D5C3D4FC701FC01119201
:1030B000CF01E217F307D1F789859A850817190719
:1030C00098F081E090E029853A852017310709F4CE
:1030D00080E0DF91CF911F910F91FF90EF90BF9013
:1030E000AF909F908F90089589818111EACF21E060
:1030F00030E0B501A401400F511F611D711DC701D2
:103100000E944417892BE9F60F5F1F4FD5CFCF934D
:10311000DF93EC010E94C817009709F060C0888116
:10312000833009F04EC08C81813009F04AC0CE0155
:10313000C396AE014D5C5D4F9C01F90111929F0158
:103140004E175F07D1F725E5FE01EF5CFD4F2083A9
:103150002AEA3196208322E52BAB2CAB21E62DAB5E
:1031600031E43EAB42E77B97408331964083319612
:103170003083319620834F85588969897A893196C1
:1031800040835183628373834B855C856D857E8527
:10319000349640835183628373834F8D58A169A114
:1031A0007AA14F5F5F4F6F4F7F4F4FA758AB69AB0F
:1031B0007AAB2981211104C021E030E00E9444173C
:1031C0001C82898181110EC070E060E00E94560E61
:1031D00031E020E0892B09F430E0832F922FDF913A
:1031E000CF91089581E090E0FACFCF92DF92EF92F5
:1031F000FF92CF93DF93EC016A017B018FA598A921
:10320000A9A9BAA98C159D05AE05BF0539F1CE0156
:103210000E94C8170097D9F4898181110EC080914E
:10322000110280FD0AC021E030E0B701A601CE0105
:10323000C3960E94190E009731F081E090E0CC24F3
:10324000CA94DC2C7601CFA6D8AAE9AAFAAADF9103
:10325000CF91FF90EF90DF90CF90089590E080E0C5
:10326000F6CFAF92BF92CF92DF92EF92FF920F9381
:103270001F93CF93DF938C016A017B0182E0C81614
:10328000D104E104F10408F4A9C0F8018789908D04
:10329000A18DB28DC816D906EA06FB0608F09EC0BD
:1032A0008081823009F458C0833009F473C08130C2
:1032B00009F094C0EA01D695C795C40FD51FCE0179
:1032C000892F9927869543A154A165A176A1480F1E
:1032D000591F611D711DC8010E94F518892B71F0DD
:1032E0006FEF7FEFCB01DF91CF911F910F91FF9097
:1032F000EF90DF90CF90BF90AF9008955E01FFEF09
:10330000AF1ABF0AD170C00FD11FCBA9C501892F39
:1033100099278695F80143A154A165A176A1480F8C
:10332000591F611D711DC8010E94F518892BC1F636
:10333000F1E0BF220A0D1B1DF80183A9782F6C2F25
:10334000C0FE08C0E4E076956795EA95E1F790E065
:1033500080E0C9CF7F70FBCF77276F2D5E2D4D2D7D
:1033600083A194A1A5A1B6A1480F591F6A1F7B1F75
:10337000C8010E94F518892B09F0B2CFCC0CDD1CD6
:10338000E894C0F8F1E0DF220C0D1D1DF80163A9DF
:1033900074A9DDCF83A194A1A5A1B6A137E076954C
:1033A0006795579547953A95D1F7480F591F6A1F6A
:1033B0007B1FC8010E94F518892B09F091CF0D5C85
:1033C0001F4FC601880F991F880F991F8C7F91701E
:1033D000800F911F0E949E139F7085CF61E070E067
:1033E00080E090E080CF4F925F926F927F928F92B9
:1033F0009F92AF92BF92CF92DF92EF92FF920F9384
:103400001F93CF93DF93EC016A017B01088119813F
:10341000CE86DF86E88AF98A8E809F80A884B98468
:1034200081149104A104B10409F067C0F8018081FE
:10343000833048F087A190A5A1A5B2A50097A1056A
:10344000B10509F058C0F80187819085B0E0A0E08F
:10345000B701A601E5E07695679557954795EA95FA
:10346000D1F7481759076A077B0798F082E090E088
:10347000DF91CF911F910F91FF90EF90DF90CF9050
:10348000BF90AF909F908F907F906F905F904F9084
:103490000895F80187A190A5A1A5B2A58E8B9F8B59
:1034A000A88FB98F8A8A9B8AAC8ABD8A4E895F8928
:1034B000688D798D4115510561057105B9F2D70106
:1034C000C60129E0B695A795979587952A95D1F7D6
:1034D000840F951FA61FB71F8E8B9F8BA88FB98F48
:1034E0000D5C1F4FF1E0DF22C00ED11EDB8ECA8EB5
:1034F00090E080E0BDCF4C015D01F8014184528431
:10350000712C612C39E0440C551C661C771C3A95D3
:10351000D1F7B501A401C414D504E604F70440F4BE
:10352000C8010E9467136E8B7F8B888F998FBACFEB
:10353000888199810E9431194B015C01FFEF8F1640
:103540009F06AF06BF06B9F082E088169104A10479
:10355000B10408F48BCFF8018789908DA18DB28DCD
:1035600088169906AA06BB0608F080CFC418D508AD
:10357000E608F708CECF81E090E07ACFEF92FF9295
:103580000F931F93CF93DF930F920F92CDB7DEB7B8
:103590008C01BE016F5F7F4F0E945112009709F0AE
:1035A0004BC0F801868586FF3CC0448D558D668DE5
:1035B000778D89819A810E94F5180097E9F5F801C5
:1035C000E0A0F1A0F701838580628387F80126815E
:1035D000378140855185B701808191810E942312F6
:1035E000F80182859385A485B585F701848F958F31
:1035F000A68FB78F80EC868B8CE9878B86E2808FD5
:103600008CE4818F128A138A89819A8121E0FC01DE
:1036100023830E948718F80126852F7B2687009731
:1036200059F4BE016F5F7F4FC8010E94511200978D
:1036300019F4F801118210820F900F90DF91CF9151
:103640001F910F91FF90EF900895CF93DF930E9409
:10365000BE1AEC01009799F0AC0170E060E084E3E1
:103660009FE00E94250D9F938F9385E79EE09F9397
:103670008F930E94124E0F900F900F900F90CE01DB
:10368000DF91CF9108952F923F924F925F926F9268
:103690007F928F929F92AF92BF92CF92DF92EF92E2
:1036A000FF920F931F93CF93DF9300D00F92CDB76C
:1036B000DEB78C014B016A013C832B83F901118237
:1036C0001082BE016F5F7F4F0E9451127C01892BD7
:1036D00009F0F6C0F801E784F12CE114F10409F0D7
:1036E000EFC0868580FF31C182859385A485B5852D
:1036F0004089518962897389841B950BA60BB70B8E
:10370000A60170E060E084179507A607B70708F4E4
:103710006C01760197C044895589668977898081D3
:1037200091810E943119C0C06F3FFFEF7F078F0763
:103730009F0739F481E0F8018787EE24E394F12CA8
:10374000BFC0F801648B758B868B978B29803A807C
:10375000F8014489558966897789C1010E946713F8
:10376000611571058105910509F4A4C02B013C0187
:103770004A0C5B1C611C711CE114F2E0FF0608F4AA
:10378000B7C06701CD2CDD24C694F10181859285F7
:1037900095012C0D3D1D8217930718F46C01CA1872
:1037A000DB08F10181818111C5CFC114D10411F26F
:1037B0008091110280FDBECF9601B301A201C40128
:1037C0000E94190E892B09F0B5CFE981FA81838116
:1037D0008823E1F087A590A9A1A9B2A98419950928
:1037E000A609B709A60170E060E084179507A6074F
:1037F000B70760F4BF016D5C7F4F982F8827990F42
:1038000040E052E0880D991D0E944512DC2CCC242A
:10381000DD0CEC18FD08EB81FC81808191818C0D21
:103820009D1D918380838C0C9D1CF801808991895A
:10383000A289B3898C0D9D1DA11DB11D808B918B1B
:10384000A28BB38BE114F104D9F1F801808991893D
:10385000A289B389AC01BD01517066277727452B3A
:10386000462B472B09F049C0E981FA81A184B28433
:10387000F1E0AF1AB108AC01BD01E9E076956795BA
:1038800057954795EA95D1F7A422B522A114B10422
:1038900009F05CCFF801892B8A2B8B2B09F03BCFE9
:1038A00066817781808591856230710581059105FA
:1038B00008F03ACF82E0F801878752E0E52EF12C3C
:1038C000C7010F900F900F900F90DF91CF911F9134
:1038D0000F91FF90EF90DF90CF90BF90AF909F90AF
:1038E0008F907F906F905F904F903F902F900895B2
:1038F000F801408E518E628E738EF8018089918915
:10390000917020E032E0281B390B67012E153F052E
:1039100008F46901F801408D518D628D738D8981A4
:103920009A810E94F518892B09F004CF69817A8168
:103930006D5C7F4FF801808991899170680F791FC4
:10394000A601C4010E94451264CF87E0E82EF12C45
:10395000B7CFCF93DF930E94431BEC01009799F000
:10396000AC0170E060E084E39FE00E94250D9F932E
:103970008F938DE89EE09F938F930E94124E0F903D
:103980000F900F900F90CE01DF91CF910895CF93BC
:10399000DF9300D0CDB7DEB7809112028E3FD9F40D
:1039A0009E012F5F3F4F41E050E0BE016D5F7F4FB2
:1039B00084EA96E00E94A91C892B39F080E00F90E0
:1039C0000F900F90DF91CF91089589819A81892B73
:1039D00039F08B81F4CF8F3F89F30E94B80BEFCF82
:1039E0008AE1EDCFCF93DF930F92CDB7DEB730E012
:1039F00020E041E050E0BE016F5F7F4FFC01848515
:103A000095850E94431B892B41F48981082E000C67
:103A1000990B0F90DF91CF9108958FEF9FEFF9CF22
:103A2000CF93DF93EC011B828FEF9FEFDC018FA719
:103A300098ABA9ABBAABCE010E94F518892B31F532
:103A4000FE01EF5CFD4F8081918185359A4A11F529
:103A50008BA98B3E19F0885E8230F0F443E050E091
:103A600062E174E0CE0187599F4F0E948F13892B2A
:103A700059F045E050E066E174E0CE018B579F4F6E
:103A80000E948F13892B41F480E001C084E0DF9114
:103A9000CF91089583E0FBCF82E0F9CF2F923F9240
:103AA0004F925F926F927F928F929F92AF92BF924E
:103AB000CF92DF92EF92FF920F931F93CF93DF93FA
:103AC000CDB7DEB7A3970FB6F894DEBF0FBECDBF5C
:103AD0006B01F42EDB011D921C920E947B122BE0E5
:103AE000222E312C97FD26C0FC01EE0FFF1FE3565E
:103AF000F94F008111819CE0292E312C011511050F
:103B0000C9F0F60111830083E894F0F8D8012C91F4
:103B1000222351F111962C91211126C020911102DE
:103B200020FD22C0FF2009F45DC222FF5BC2AAE093
:103B30002A2E312CC101A3960FB6F894DEBF0FBE1A
:103B4000CDBFDF91CF911F910F91FF90EF90DF904C
:103B5000CF90BF90AF909F908F907F906F905F902D
:103B60004F903F902F900895F80110828183882311
:103B700021F0F3E02F2E312CDDCF0E94900F80FD3D
:103B8000F8CFFF2011F082FDD2CF40E050E0BA0123
:103B9000C8010E94101D823009F0EBC16801FBE0F2
:103BA000CF1AFEEFDF0A9E012F5F3F4F79014801D8
:103BB0003BEC831A3DEF930A5701D6018C91882381
:103BC00009F4C9C1C60104960E949E13F5016193D0
:103BD0007193819391935F01F0E1CF0ED11CC814D2
:103BE000D90459F7670120E1C20ED11CD7014D90CD
:103BF0005D906D907D907D0183E0411451046104DE
:103C0000710409F4ACC1B301A201C8010E94101DE6
:103C1000823008F0A4C1F80186AD97AD81159240BD
:103C200009F0AFC1F801E75BFF4F80809180B12CB4
:103C3000A12C8114910439F4C801895A9F4F0E9424
:103C40009E134B015C01D8015B968D929D92AD92C3
:103C5000BC925E97F801ED5BFF4FB081B98BF80124
:103C6000B2838B2F8150823008F08BC1E05CFF4F14
:103C700030813B8F832F90E0D8011A969C938E93CE
:103C80001997009709F47DC19C01215031098223C5
:103C90009323892B09F075C13496208131813E8BA5
:103CA0002D8B18963C932E9317971901BFE02B226A
:103CB00033242114310409F064C13296C080D180CC
:103CC000F12CE12CC114D10439F4C8018D5A9F4F55
:103CD0000E949E136B017C01F801EF5BFF4F019086
:103CE000F081E02D309709F44CC12989A22FB0E072
:103CF000A50194010E94CB5468A379A38AA39BA336
:103D0000CF01B0E0A0E08C8F9D8FAE8FBF8F8D89EB
:103D10009E8974E0969587957A95E1F72C8D3D8D77
:103D20004E8D5F8D280F391F411D511DDA01C901CC
:103D300028A139A14AA15BA1280F391F4A1F5B1F87
:103D40002F8B388F498F5A8FC216D306E406F5069B
:103D500008F417C1C21AD30AE40AF50A9B8D892F09
:103D600090E0B0E0A0E0898B9A8BAB8BBC8BC70155
:103D7000B60129893A894B895C890E94A9548989AD
:103D80009A89AB89BC89C816D906EA06FB0608F4ED
:103D9000F8C0263F9FEF390749079FE0590708F011
:103DA000F0C0263FAFEF3A074105510508F41DC1A9
:103DB000B3E0B98B69017A01F2E0CF0ED11CE11CAE
:103DC000F11CD8015796CD92DD92ED92FC925A9754
:103DD000F801478E50A261A272A28C8D9D8DAE8D8E
:103DE000BF8D840D951DA61DB71D83A394A3A5A308
:103DF000B6A34F89588D698D7A8D440D551D661D6A
:103E0000771D43A754A765A776A7F989F33009F072
:103E1000BCC0F801E35AFF4F808191812D893E8912
:103E2000822B932B892B09F0ACC0C801815A9F4F7C
:103E30000E949E13D80197966D937D938D939C93CA
:103E40009A9762E0CC0CDD1CEE1CFF1C6A95D1F742
:103E50003FEFC30E31E0D31EE11CF11C39E0F694B4
:103E6000E794D794C7943A95D1F78C149D04AE0487
:103E7000BF0408F486C08FEF9FEFDC01F80187874D
:103E8000908BA18BB28B83879487A587B68780E8B8
:103E90008483F989F33009F047C0F801ED59FF4FE9
:103EA00080819181019709F03FC0B301A2014F5F6A
:103EB0005F4F6F4F7F4FC8010E94F518892BA1F506
:103EC000D80114961C92F801EF5CFD4F808191811E
:103ED00085359A4A49F5C801C3960E949E136235FA
:103EE00072458146914401F5C801895E9D4F0E944B
:103EF0009E136237724781449146B1F4C801855ED2
:103F00009D4F0E949E13D8011F966D937D938D93B4
:103F10009C935297C801815E9D4F0E949E13F801A9
:103F20006387748785879687E989D801EC938091A8
:103F30009B0690919C06019690939C0680939B060D
:103F400016969C938E93159753961D921D921D92D3
:103F50001C925697EFCD60E070E0CB0137CECE14C7
:103F6000DF0409F043CE843061F422242394312C01
:103F7000E1CD8430D1F3412C512C3201823008F450
:103F80004ACEEDE02E2E312CD5CDED89FE89EF2BDA
:103F9000C1F328A139A14AA15BA1820F931FA41FDD
:103FA000B51FF80187A390A7A1A7B2A7F989F2309E
:103FB00029F4CC0CDD1CEE1CFF1C4ACFA3E0B0E0C2
:103FC000A70196010E94CB549695879577956795A2
:103FD00021E0C222DD24EE24FF24C60ED71EE81EF7
:103FE000F91E36CF312C212CA5CDE1E0263FBFE0D4
:103FF0003B074105510508F0E2E0E98BDBCE2F924B
:104000003F924F925F926F927F928F929F92AF9268
:10401000BF92CF92DF92EF92FF920F931F93CF93B5
:10402000DF9300D00F92CDB7DEB79C838B836A01FC
:104030007B012801390122E0C216D104E104F10418
:1040400008F4F1C0FC018789908DA18DB28DC8164E
:10405000D906EA06FB0608F0E6C08081823009F442
:104060008AC0833009F4A7C0813009F0DCC05A014E
:10407000B694A794A40EB51EC501892F99278695DD
:1040800043A154A165A176A1480F591F611D711D5F
:10409000CF010E94F5188C01892B09F04DC08B814E
:1040A0009C81C3969A83898315019FEF291A390A47
:1040B000E1E0BE22E981FA81EA0DFB1D842D460173
:1040C000570121E082229924AA24BB24C0FE07C004
:1040D00080818F7090E1499E90011124822B808312
:1040E00081E0EB81FC81838343A154A165A176A18A
:1040F000C101892F99278695480F591F611D711D90
:10410000CF010E94F5188C01892BB1F4F1E03F2218
:10411000E981FA81E20DF31D89288A288B2821F193
:1041200064E076946794579447946A95D1F74082F7
:1041300081E0EB81FC818383C8010F900F900F9089
:104140000F90DF91CF911F910F91FF90EF90DF9033
:10415000CF90BF90AF909F908F907F906F905F9027
:104160004F903F902F9008958081807F252D2F7054
:10417000422E482ADCCF77276F2D5E2D4D2DEB8107
:10418000FC8183A194A1A5A1B6A1480F591F6A1F64
:104190007B1FCF010E94F5188C01892B69F6F6016F
:1041A000EE0FFF1FEE7FF1708B819C81E80FF91FEE
:1041B00054AA43AABDCFEB81FC8183A194A1A5A100
:1041C000B6A137E076956795579547953A95D1F71B
:1041D000480F591F6A1F7B1FCF010E94F5188C01E1
:1041E000892B09F0A9CF8B819C81C396CC0CDD1C57
:1041F000CC0CDD1CFCEFCF22F1E0DF22C80ED91E73
:10420000C6010E949E132FE0722266277727882717
:10421000907F462A572A682A792AF60140825182DD
:104220006282738285CF02E010E086CF4F925F9268
:104230006F927F928F929F92AF92BF92CF92DF92B6
:10424000EF92FF920F931F93CF93DF938C012A017C
:104250003B01FC01C081D18141145104610471040E
:10426000B9F48B849C84AD84BE8481149104A10430
:10427000B10449F08F89988DA98DBA8D8816990659
:10428000AA06BB06C8F1812C912C5401839434C03A
:10429000CE010E9431196B017C01F2E0CF16D104EE
:1042A000E104F104B8F4C12CD12C7601C394C70108
:1042B000B601DF91CF911F910F91FF90EF90DF90AA
:1042C000CF90BF90AF909F908F907F906F905F90B6
:1042D0004F9008952FEFC216D206E206F20609F4B7
:1042E000D2C08F89988DA98DBA8D53014201C8160D
:1042F000D906EA06FB06D8F28F859889A989BA897A
:10430000892B8A2B8B2B21F4C12CD12C7601CFCF7A
:1043100084149504A604B70409F042C07501640131
:104320008FEFC81AD80AE80AF80A8F89988DA98DE4
:10433000BA8DC816D906EA06FB0628F022E0C22E7E
:10434000D12CE12CF12CB701A601F80180819181DB
:104350000E943119613071058105910509F4A3CFDF
:104360006F3FFFEF7F078F079F0709F48CC0672B14
:10437000682B692B09F44EC08B859C85AD85BE8565
:1043800082309105A105B10558F04F89588D698D8E
:104390007A8D84179507A607B70710F44C015D01C5
:1043A000750164012FEFC21AD20AE20AF20A8F895C
:1043B000988DA98DBA8DC816D906EA06FB0660F05D
:1043C00082E088169104A104B10408F49DCF92E024
:1043D000C92ED12CE12CF12CB701A601F801808166
:1043E00091810E9431196115710581059105B9F01E
:1043F000613071058105910509F455CF6F3F7F4FFD
:104400008F4F9F4F09F43FC0C814D904EA04FB043E
:1044100049F67ACFC114D104E104F10409F20FEF97
:104420001FEF9801B701A601CE010E94FF1F009760
:1044300039F54114510461047104C9F4CB86DC865A
:10444000ED86FE868F859889A989BA894F89588D0E
:10445000698D7A8D425051096109710948175907D0
:104460006A077B07A8F48C8181608C8320CF970139
:104470008601B301A201CE010E94FF1F0097F1F255
:10448000019709F010CFCC24CA94DC2C76010FCF11
:104490000197A109B1098F87988BA98BBA8BE3CFBC
:1044A0002F923F924F925F926F927F928F929F9244
:1044B000AF92BF92CF92DF92EF92FF920F931F9332
:1044C000CF93DF9300D000D0CDB7DEB78C016A0167
:1044D0007B01BE016F5F7F4F0E9451121C01892B2F
:1044E00009F008C1D8011F962C901F97312C211478
:1044F000310409F0FFC01A968D919D910D90BC91E9
:10450000A02D8C159D05AE05BF0530F4F80126855C
:1045100021FD02C06C017D01D80150968D909D90C7
:10452000AD90BC905397F801108A118A128A138AB1
:10453000C114D104E104F10481F5C12CD12C760120
:10454000F80180899189A289B38942855385648560
:104550007585481759076A077B0738F48287938760
:10456000A487B5872685206426879170AA27BB2754
:10457000892B8A2B8B2B09F4BDC0F801808D918D7E
:10458000A28DB38D8C159D05AE05BF0509F4B2C093
:10459000C08ED18EE28EF38EADC0E981FA81818525
:1045A0009285B0E0A0E02C013D0159E0440C551C7F
:1045B000661C771C5A95D1F781149104A104B104AB
:1045C00009F478C0F1E08F1A9108A108B108C70179
:1045D000B6016150710981099109A30192010E94FC
:1045E000A9542B833C834D835E83C501B401A30191
:1045F00092010E94A9548B819C81AD81BE8182175A
:104600009307A407B50708F455C088279927DC014C
:1046100084199509A609B70988219921AA21BB21E6
:10462000F801808B918BA28BB38BC81AD90AEA0A46
:10463000FB0A4489558966897789411551056105C9
:10464000710509F47ACFF80180899189A289B3892B
:104650004C145D046E047F0408F481C0F801808965
:104660009189A289B3898C0D9D1DAE1DBF1D808BC4
:10467000918BA28BB38BD701C6019170AA27BB2760
:10468000892B8A2B8B2B09F458CF89819A810E9420
:104690006713611571058105910531F129E0F694E3
:1046A000E794D794C7942A95D1F7C60ED71EE81E73
:1046B000F91E46CFD80116964D915D916D917C9172
:1046C0001997411551056105710509F040C040E099
:1046D00050E0BA01C8010E941621AB01BC01413073
:1046E00051056105710501F582E0F801878742E017
:1046F000242E312CC10126960FB6F894DEBF0FBED2
:10470000CDBFDF91CF911F910F91FF90EF90DF9080
:10471000CF90BF90AF909F908F907F906F905F9061
:104720004F903F902F9008954F3FFFEF5F076F0727
:104730007F0741F481E0D8011F968C9322242394B3
:10474000312CD8CFF8014683578360877187D80111
:1047500054964D935D936D937C9357976ECF46011E
:10476000570184189508A608B708840D951DA61D45
:10477000B71DF801808B918BA28BB38B868581FF4F
:104780000EC0C8010E9416216B017C01C114D10426
:10479000E104F10451F440E050E0BA015FCF8081C0
:1047A00091810E9431196B017C01BFEFCB16DB06B2
:1047B000EB06FB0609F4BECFE2E0CE16D104E1041D
:1047C000F10408F491CFE981FA818789908DA18D58
:1047D000B28DC816D906EA06FB0608F085CFD801C7
:1047E0005496CD92DD92ED92FC925797B701A601B7
:1047F0007501640128CF2F923F924F925F926F9282
:104800007F928F929F92AF92BF92CF92DF92EF9260
:10481000FF920F931F93CF93DF9300D000D0CDB7BB
:10482000DEB78C014B015A013E832D83F9011182C1
:104830001082BE016F5F7F4F0E9451126C01892B65
:1048400009F061C0F801C784D12CC114D10409F06A
:104850005AC0868581FF8BC180899189A289B389DD
:10486000AC01BD014A0D5B1D611D711D4817590743
:104870006A077B0718F45C01A094B094A114B104FA
:10488000F1F1F80180899189A289B389AC01BD0158
:10489000517066277727452B462B472B09F03BC1E4
:1048A000E981FA812185328521503109AC01BD01B0
:1048B000E9E07695679557954795EA95D1F71901FF
:1048C000242235222114310409F066C0F801892B15
:1048D0008A2B8B2B91F56681778180859185611577
:1048E00071058105910571F540E050E0BA01C801FC
:1048F0000E941621611571058105910519F5F801D0
:10490000868580648687C60126960FB6F894DEBF3A
:104910000FBECDBFDF91CF911F910F91FF90EF9010
:10492000DF90CF90BF90AF909F908F907F906F90CF
:104930005F904F903F902F900895448955896689E4
:104940007789D5CF613071058105910539F482E011
:10495000F801878752E0C52ED12CD5CF6F3FFFEFEE
:104960007F078F079F0739F481E0F8018787CC2400
:10497000C394D12CC8CFF801648B758B868B978B31
:10498000468057806084718445284628472821F452
:10499000668377838087918789819A81FC0147A408
:1049A00050A861A872A8F801408D518D628D738D59
:1049B000441655066606770621F40E94C817892B0F
:1049C00099F629813A813C832B83F80144895589E2
:1049D00066897789C9010E94671361157105810590
:1049E000910509F4B4CF2B013C01420C531C611C0E
:1049F000711CA114F2E0BF0608F46DC07501EF2C24
:104A0000FF24E694EB81FC818185928591012E0D36
:104A10003F1D8217930718F47C01E218F308EB811D
:104A2000FC8181818111A0CF9701B301A201C40152
:104A30000E944417892B09F097CF89819A81FC0144
:104A400047A550A961A972A94419550966097709B2
:104A50002701712C612C441555056605770570F406
:104A6000542F4427550FB401640F751F40E052E0E6
:104A7000C3960E944512E981FA811382FE2CEE242E
:104A8000FF0CAE18BF08ED81FE81808191818E0DF3
:104A90009F1D918380838E0C9F1CF80180899189D2
:104AA000A289B3898E0D9F1DA11DB11D808B918B95
:104AB000A28BB38B4285538564857585481759074A
:104AC0006A077B0710F4AC01BD01F80142875387E8
:104AD00064877587D3CEF8014089518962897389CB
:104AE00082859385A485B585481759076A077B0792
:104AF00068F08B819C810E94C817892B09F034CF04
:104B0000E981FA8147A650AA61AA72AAF801408EEB
:104B1000518E628E738EF80180899189917020E0A8
:104B200032E0281B390B75012A153B0508F4790181
:104B3000F801408D518D628D738D89819A810E941B
:104B4000F518892B09F010CF29813A812D5C3F4F50
:104B5000F801808991899170A701B401820F931F98
:104B60000E944512E981FA8121E023838ACF87E000
:104B7000C82ED12CC8CECF93DF930E94FB23EC012B
:104B8000009799F0AC0170E060E084E39FE00E9440
:104B9000250D9F938F9385EA9EE09F938F930E94AC
:104BA000124E0F900F900F900F90CE01DF91CF918A
:104BB0000895CF92DF92EF92FF920F931F93CF93BE
:104BC000DF9300D000D000D00F92CDB7DEB78C01BC
:104BD000BC016F5F7F4F9E01285F3F4F4CED5CE053
:104BE0000E942A1188859985BC016C5F7F4F9E01C8
:104BF0002F5F3F4F4CED5CE00E942A1180912C0703
:104C00008823E1F11F930F9386E891E19F938F939F
:104C10000E94124E89858F9388858F9385E791E155
:104C20009F938F930E94124E89811F928F9389E6E2
:104C300091E19F938F930E94124E8A811F928F93CE
:104C40008CE591E19F938F930E94124E8C818F93FC
:104C50008B818F938FE491E19F938F930E94124EEB
:104C60008D811F928F9382E491E19F938F930E9495
:104C7000124E0FB6F894DEBF0FBECDBF89818130D2
:104C800039F0882309F484C0843008F083C008C058
:104C90009A81933071F198F49130E9F19230C9F032
:104CA0002A960FB6F894DEBF0FBECDBFDF91CF912D
:104CB0001F910F91FF90EF90DF90CF900895943067
:104CC00089F1953069F70E94C71C8D838823D9F339
:104CD00003C00E94C71C8D8388859985BC016C5FC9
:104CE0007F4F9E012F5F3F4F40E05DE00E942A1101
:104CF00012C06D816A87809114028E3F71F49E010B
:104D00002A5F3F4F41E050E0BE01665F7F4F88EE73
:104D100096E00E94BB2580E0C3CF8F3FE1F30E9465
:104D20005D0BF9CF809114028E3FA1F08F3F81F08F
:104D300080FBCC24C0F8D12C86E48C9DF0018D9DA5
:104D4000F00D1124E25CF84F84819581892B11F0DC
:104D500080E001C082E0909112029E3F11F48160D8
:104D6000BACF9F3F09F4B7CF90FBEE24E0F8F12CC7
:104D700096E49E9DF0019F9DF00D1124E653F84F9F
:104D80002481358191E0232B09F490E0892BA3CF76
:104D90008FEF86CF81E084CF4F925F926F927F92A8
:104DA0009F92AF92BF92CF92DF92EF92FF920F93BA
:104DB0001F93CF93DF9300D00F920F92CDB7DEB742
:104DC0002B013C0110923D07411451046104710410
:104DD00029F081E0481A5108610871080E94D9142D
:104DE000E12C81E9C82E81E1D82E96EBA92E91E124
:104DF000B92E80913D0781113BC0809102018064F2
:104E0000809302010E94DA11F22E29833A834B83A8
:104E10005C836D830B811C81809102018F7B809369
:104E20000201F6FE56C080913202909133020817BB
:104E30001907A0F1809134029091350280179107F3
:104E400068F11F930F938BEF91E19F938F930E94D3
:104E5000124E0E94F814B80190E080E09801AC0175
:104E60000E9455150E94A30B0F900F900F900F906A
:104E70000F900F900F900F900F90DF91CF911F9197
:104E80000F91FF90EF90DF90CF90BF90AF909F90E9
:104E90007F906F905F904F900C94F81480911E0259
:104EA00090911F0208171907A0F08091200290919D
:104EB00021028017910768F00E94F814B80190E071
:104EC00080E09801AC010E9455150E94A30BEE24CE
:104ED000E3948A8181FF3BC080912A0290912B024A
:104EE00008171907C8F080912C0290912D028017A5
:104EF000910790F01F930F9384EE91E19F938F930E
:104F00000E94124E602F1C830B834F2D5A817C818F
:104F10008D810E94FE13A6CF8091160290911702F8
:104F20000817190798F180911802909119028017BB
:104F3000910760F1F982602F1C830B834F2D5A81FA
:104F40007C818D810E94FE130E94A30B2DC0809155
:104F50002E0290912F020817190760F080913002FD
:104F6000909131028017910728F01F930F938DECD9
:104F700091E1C4CF80911A0290911B020817190782
:104F800028F080911C0290911D02D1CF80912202C5
:104F9000909123020817190738F08091240290910C
:104FA00025028017910730F68F2D8270982EF1FC24
:104FB00051C080912C07882361F0C80101979F930D
:104FC0008F93BF92AF920E94124E0F900F900F904E
:104FD0000F90E11002C00E94F814C80103970E94CC
:104FE000D925F82E0E94A30B849A8C980E94D9147C
:104FF00080910201806480930201809102018F7B85
:10500000809302018C9A84988FEFF81209C01F9345
:105010000F938FE991E19F938F930E94124E24CFBB
:1050200080912C0781110FC0912C81E0481A510802
:10503000610871088FEF481658066806780609F46B
:1050400017CFE92CD6CEDF92CF920E94124E0F904E
:105050000F90EBCF81E0E812E7CF0E94D91499249A
:105060009394E3CFCF93DF930F92CDB7DEB78983CD
:10507000FB0130E020E041E050E0BE016F5F7F4F78
:10508000848595850E94FB2321E030E0892B11F473
:1050900030E020E088279927821B930B0F90DF9147
:1050A000CF9108954F925F926F927F92AF92BF928D
:1050B000CF92DF92EF92FF920F931F93CF93DF93E4
:1050C000EC015B01CE84DF84E888F98820E2C20E1F
:1050D000D11CE11CF11C8E899F89A88DB98D009788
:1050E000A105B105D1F1C114D104E0E2EE06F1044D
:1050F000A0F508811981B701A601517066277727AD
:10510000452B462B472B09F0A4C00196A11DB11DCC
:105110008E8B9F8BA88FB98F4A895B896C897D891B
:10512000F8014115510561057105D1F4878190851C
:10513000B0E0A0E0B701A60135E0769567955795F8
:1051400047953A95D1F7481759076A077B0708F43E
:1051500080C01E8A1F8A188E198E84E090E024C0B9
:10516000818592850197B0E0A0E02601370129E012
:1051700076946794579447942A95D1F78421952182
:10518000A621B721892B8A2B8B2B09F062C0C8017D
:105190000E9431192B013C01F2E04F1651046104C9
:1051A000710488F482E090E0DF91CF911F910F911C
:1051B000FF90EF90DF90CF90BF90AF907F906F9077
:1051C0005F904F9008952FEF4216520662067206C6
:1051D00019F481E090E0E8CFF8018789908DA18DE6
:1051E000B28D481659066A067B0630F1AB2809F4E1
:1051F000B0CF4A895B896C897D89CE010E941621D6
:105200002B013C0187E090E04114510461047104DA
:1052100059F2F1E04F1651046104710419F22FEFB5
:105220004216520662067206A1F2B301A201C8013B
:105230000E942E18892B69F64A8A5B8A6C8A7D8ABD
:10524000B301A201C8010E9467136E8B7F8B888F08
:10525000998FCE86DF86E88AF98A0D5C1F4F81E040
:10526000D8220C0D1D1D1B8F0A8F90E080E09CCF73
:105270000F931F93CF93DF93EC010881198184E092
:1052800090E04E895F89688D798D411551056105E2
:10529000710519F40097B9F024C0C8010E94F518EF
:1052A0000097F9F4EA8DFB8D90819923F9F08385BD
:1052B0008F738C83953E71F09E3261F08F3051F088
:1052C0008F71883039F090E080E0DF91CF911F91AD
:1052D0000F91089570E060E0CE010E94522800977F
:1052E00081F21E8A1F8A188E198EEFCF84E090E01B
:1052F000F8CFEF92FF920F931F93CF93DF930F920C
:105300000F92CDB7DEB78C017B01BE016F5F7F4F7F
:105310000E9451120097A9F4C8010E9438299C01EB
:105320002B7F232B71F4B701C8010E94B01370E0EA
:1053300060E0C8010E9452288430910511F490E089
:1053400080E00F900F90DF91CF911F910F91FF9010
:10535000EF900895CF92DF92EF92FF920F931F93F9
:10536000CF93DF937C01EB016B0189E0C80ED11C68
:10537000BE01C7010E9479298C01892B79F48985A6
:10538000882361F030E020E050E040E0B601F70112
:1053900080A591A50E94CA12892B51F3C801DF9103
:1053A000CF911F910F91FF90EF90DF90CF900895D4
:1053B0003F924F925F926F927F928F929F92AF92A5
:1053C000BF92CF92DF92EF92FF920F931F93CF93F2
:1053D000DF93EC018B01E880F980FB0180818F3243
:1053E00011F08C3579F498018901F90180812F5FE2
:1053F0003F4F8F32C9F38C35B9F31E821F82188656
:10540000198609C0F70183899489A589B6898E8395
:105410009F83A887B987F8018081803208F447C04C
:105420006E01FCE1CF0ED11C2E0187E2480E511C0B
:1054300030E2332E370193E3690E711CC601FC0183
:105440003192CF01E415F505D1F7F80180818E3254
:1054500009F446C0580190E080E030E020E068E0C8
:1054600070E02F5F3F4FF50141915F01542F4132B2
:1054700078F04F3219F04C3509F085C0F801E20F91
:10548000F31F50815F3209F47BC05C3509F478C0AA
:10549000020F131F892B09F4E2C08C8D853E11F495
:1054A00085E08C8F80E0413260F584E02AC080E89E
:1054B0008FA340E050E0BA01CE01DF91CF911F9160
:1054C0000F91FF90EF90DF90CF90BF90AF909F90A3
:1054D0008F907F906F905F904F903F900C94F31956
:1054E0008C8F81818E3209F03FC08D8F82818E3208
:1054F00009F4B5C023E030E08F32C9F5020F131F65
:1055000080E28FA3A880B98040E050E0BA01CE01CC
:105510000E94F3194C01892B09F062C04E895F8902
:10552000688D798DC5010E94F5184C01892B09F011
:1055300057C0EA8DFB8D8081882309F44EC0838596
:105540008F738C83838583FD09C04BE050E0B601E7
:10555000CF010E948F13892B09F442C070E060E0F4
:10556000CE010E945228D6CF22E030E0C5CF8C3544
:1055700029F2813208F073C0020F131F84E2C1CFF9
:105580002F5F3F4F7BCF4E3209F46DC086179707D0
:1055900008F065C047FF06C05F77E52FF0E0E25CEA
:1055A000FC4F5081E52FF0E0ACE1B4E04D91442395
:1055B00049F0842E440F9908E815F905B9F7EF2B47
:1055C00009F04DC04FE9450F4A3108F45052D60159
:1055D000A80FB91F5C93019644CF24E0822E912C32
:1055E0008FA18114910441F1F4E08F16910459F4D4
:1055F000982F947085FF1AC0992309F41FCF80E873
:105600008FA3912C812CC401DF91CF911F910F9119
:10561000FF90EF90DF90CF90BF90AF909F908F90D2
:105620007F906F905F904F903F9008959111EBCFD6
:1056300085E0882E912CE7CF82FDE5CF8C8184FF19
:10564000F7CF6E857F857170660D771DF7018081BC
:105650000E9430126E837F8388879987EFCE96E011
:10566000892E912CD0CF6B307105C9F388E090E082
:105670006BE070E0F6CEEF92FF920F931F93CF9303
:10568000DF93CDB7DEB7AC970FB6F894DEBF0FBE91
:10569000CDBF9CA78BA77B0140E0BE016F5F7F4F12
:1056A000CE018B960E944E1D8C01892BA1F46BA517
:1056B0007CA5CE0101960E94D8298C01892B59F432
:1056C00088A587FD16C0E114F10429F0B701CE01C9
:1056D00001960E94B013C801AC960FB6F894DEBFD5
:1056E0000FBECDBFDF91CF911F910F91FF90EF9033
:1056F000089506E010E0EFCF0F931F93CF93DF9351
:1057000000D00F92CDB7DEB78C017C836B8340E075
:10571000BE016F5F7F4FCE0103960E944E1D009722
:10572000A9F489819A81F801918380836B817C81BE
:10573000C8010E94D8290097A1F5F80187A187FD2B
:1057400015C0848184FD06C085E090E0F8011182D7
:1057500010821EC0628D738DE981FA8180810E9462
:105760003012F8016683778380879187E981FA8117
:1057700085819681F8019383828340E050E0BA01ED
:10578000C8010E94F31984309105F1F20097F1F6F7
:105790000F900F900F900F90DF91CF911F910F916D
:1057A00008958430910581F2D1CF0F931F93CF9349
:1057B000DF93EC018B0139A728A7BA010E947C2B4B
:1057C000009741F4B801CE01DF91CF911F910F9165
:1057D0000C94AA29DF91CF911F910F9108950F93F7
:1057E0001F93CF93DF93CDB7DEB7AE970FB6F89484
:1057F000DEBF0FBECDBF02979CF487EA95E09F9372
:105800008F930E94124E0F900F90AE960FB6F894A1
:10581000DEBF0FBECDBFDF91CF911F910F910895D5
:10582000FB01828193819EA78DA740E0BE01655D4B
:105830007F4FCE018D960E944E1D0097F9F48BA5E7
:105840009CA59A8389836DA57EA5CE0101960E94B1
:10585000D8290097A9F588A587FF0BC0EBA5FCA563
:105860008F819885A985BA85838B948BA58BB68B00
:10587000CCCF8D8184FD16C085E090E0AC0170E056
:1058800060E084E39FE00E94250D9F938F9389E859
:1058900095E09F938F930E94124E0F900F900F9060
:1058A0000F90B3CF0BA51CA56B8D7C8DF80180816B
:1058B0000E943012F801638B748B858B968BA5CF79
:1058C00084309105D9F6D8CFEF92FF920F931F93B2
:1058D000CF93DF938C01DC01ED90FC9040E050E031
:1058E000BA010E94F319EC01892B09F048C0F801B4
:1058F00046895789608D718DC7010E94F518EC01AA
:10590000892BE9F5D8015A96ED91FC918081853E6D
:1059100071F5F80146895789608D718DC7010E9424
:10592000F518EC01892BD9F4D8015A968D919C91E8
:105930009C01205E3F4FFC011192CF01E217F3075B
:10594000D1F7B801645E7F4F4BE050E0D8015A9622
:105950008D919C910E94451281E0F7018383CE01D5
:10596000DF91CF911F910F91FF90EF9008958823C1
:1059700081F261E070E0C8010E945228B4CFC430C7
:10598000D10569F7C7E0D0E0EACF9F92AF92BF920E
:10599000CF92DF92EF92FF920F931F93CF93DF93FB
:1059A000CDB7DEB7CA57D1090FB6F894DEBF0FBE28
:1059B000CDBFD82EC92EB62EA72EEA968FAFEA9766
:1059C000EB969FAFEB97E8966FAFE897E9967FAFBE
:1059D000E997CE0189589F4F0E947B1242E0BE0199
:1059E0006B587F4FCE0187589F4F0E944E1D8C01F0
:1059F000892B09F0E0C0E7968EAD9FADE7979CA795
:105A00008BA7EB966EAD7FADEB97CE018B960E9488
:105A1000D8298C01892B09F0CEC063968FAD63978E
:105A2000807A06E010E009F0C6C027966EAD7FAD23
:105A3000279740E250E0CE018B5A9F4F0E944512BB
:105A40004AE250E0BE01655D7F4FCE0101960E94A3
:105A50004512E9966EAD7FADE997CE0101960E94A1
:105A6000D8298C010097E9F44F81588569857A859A
:105A700089A99AA9ABA9BCA9481759076A077B0746
:105A800069F44F85588969897A8989AD9AADABAD3A
:105A9000BCAD481759076A077B0731F008E010E0F2
:105AA0008AC0049709F087C0CE0101960E94642C39
:105AB0008C01892B09F07FC00B8D1C8D65E570E092
:105AC0006C0F7D1F635F7F4F43E150E0C8010D966F
:105AD0000E944512A1968FADA19784FF98C0F8014E
